RA  880146711COMPUTING RESOURCES INC                                               PO BOX 30005                       RENO                NV8952030057754248008662932047RAF AGENT                                                                                                                                                                                                                               
TP000000005TESTCOMPANY5                           COLEGALADDRESSLINE1 COLEGALADDRESSLRIDGEWOOD           NJ07450              NN20102010Y201012DY201012DY201012DY201012D                                                                                                                                                                                                                                        
TP000000002TESTCOMPANY2                           COLEGALADDRESSLINE1 COLEGALADDRESSLRIDGEWOOD           NJ07450              NN20102010Y201012DY201012DY201012DY201012D                                                                                                                                                                                                                                        
TP000000003TESTCOMPANY3                           COLEGALADDRESSLINE1 COLEGALADDRESSLRIDGEWOOD           NJ07450              NN20102010Y201012DY201012DY201012DY201012D                                                                                                                                                                                                                                        
TP000000004TESTCOMPANY4                           COLEGALADDRESSLINE1 COLEGALADDRESSLRIDGEWOOD           NJ07450              NN20102010Y201012DY201012DY201012DY201012D                                                                                                                                                                                                                                        
E000004                                                                                                                                                                                                                                                                                                                                                                                                         
