RA  880146711COMPUTING RESOURCES INC                                               PO BOX 30005                       RENO                NV8952030057754248008662932047RAF AGENT                                                                                                                                                                                                                               
TP000000001TESTCOMPANY1                           COLEGALADDRESSLINE1 COLEGALADDRESSLRIDGEWOOD           NJ07450              NN20102010Y201012AY201012AY201012AY201012A                                                                                                                                                                                                                                        
TP000000002TESTCOMPANY2                           COLEGALADDRESSLINE1 COLEGALADDRESSLRIDGEWOOD           NJ07450              NN20102010Y201012AY201012AY201012AY201012A                                                                                                                                                                                                                                        
TP000000003TESTCOMPANY3                           COLEGALADDRESSLINE1 COLEGALADDRESSLRIDGEWOOD           NJ07450              NN20102010Y201012AY201012AY201012AY201012A                                                                                                                                                                                                                                        
TP000000004TESTCOMPANY4                           COLEGALADDRESSLINE1 COLEGALADDRESSLRIDGEWOOD           NJ07450              NN20102010Y201012AY201012AY201012AY201012A                                                                                                                                                                                                                                        
TP000000005TESTCOMPANY5                           COLEGALADDRESSLINE1 COLEGALADDRESSLRIDGEWOOD           NJ07450              NN20102010Y201012AY201012AY201012AY201012A                                                                                                                                                                                                                                        
TP000000006TESTCOMPANY6                           COLEGALADDRESSLINE1 COLEGALADDRESSLRIDGEWOOD           NJ07450              NN20102010Y201012AY201012AY201012AY201012A                                                                                                                                                                                                                                        
TP000000007TESTCOMPANY7                           COLEGALADDRESSLINE1 COLEGALADDRESSLRIDGEWOOD           NJ07450              NN20102010Y201012AY201012AY201012AY201012A                                                                                                                                                                                                                                        
TP000000008TESTCOMPANY8                           COLEGALADDRESSLINE1 COLEGALADDRESSLRIDGEWOOD           NJ07450              NN20102010Y201012AY201012AY201012AY201012A                                                                                                                                                                                                                                        
TP000000009TESTCOMPANY9                           COLEGALADDRESSLINE1 COLEGALADDRESSLRIDGEWOOD           NJ07450              NN20102010Y201012AY201012AY201012AY201012A                                                                                                                                                                                                                                        
TP000000010TESTCOMPANY10                          COLEGALADDRESSLINE1 COLEGALADDRESSLRIDGEWOOD           NJ07450              NN20102010Y201012AY201012AY201012AY201012A                                                                                                                                                                                                                                        
TP000000011TESTCOMPANY11                          COLEGALADDRESSLINE1 COLEGALADDRESSLRIDGEWOOD           NJ07450              NN20102010Y201012AY201012AY201012AY201012A                                                                                                                                                                                                                                        
TP000000012TESTCOMPANY12                          COLEGALADDRESSLINE1 COLEGALADDRESSLRIDGEWOOD           NJ07450              NN20102010Y201012AY201012AY201012AY201012A                                                                                                                                                                                                                                        
TP000000013TESTCOMPANY13                          COLEGALADDRESSLINE1 COLEGALADDRESSLRIDGEWOOD           NJ07450              NN20102010Y201012AY201012AY201012AY201012A                                                                                                                                                                                                                                        
TP000000014TESTCOMPANY14                          COLEGALADDRESSLINE1 COLEGALADDRESSLRIDGEWOOD           NJ07450              NN20102010Y201012AY201012AY201012AY201012A                                                                                                                                                                                                                                        
TP000000015TESTCOMPANY15                          COLEGALADDRESSLINE1 COLEGALADDRESSLRIDGEWOOD           NJ07450              NN20102010Y201012AY201012AY201012AY201012A                                                                                                                                                                                                                                        
TP000000016TESTCOMPANY16                          COLEGALADDRESSLINE1 COLEGALADDRESSLRIDGEWOOD           NJ07450              NN20102010Y201012AY201012AY201012AY201012A                                                                                                                                                                                                                                        
TP000000017TESTCOMPANY17                          COLEGALADDRESSLINE1 COLEGALADDRESSLRIDGEWOOD           NJ07450              NN20102010Y201012AY201012AY201012AY201012A                                                                                                                                                                                                                                        
TP000000018TESTCOMPANY18                          COLEGALADDRESSLINE1 COLEGALADDRESSLRIDGEWOOD           NJ07450              NN20102010Y201012AY201012AY201012AY201012A                                                                                                                                                                                                                                        
TP000000019TESTCOMPANY19                          COLEGALADDRESSLINE1 COLEGALADDRESSLRIDGEWOOD           NJ07450              NN20102010Y201012AY201012AY201012AY201012A                                                                                                                                                                                                                                        
TP000000020TESTCOMPANY20                          COLEGALADDRESSLINE1 COLEGALADDRESSLRIDGEWOOD           NJ07450              NN20102010Y201012AY201012AY201012AY201012A                                                                                                                                                                                                                                        
TP000000021TESTCOMPANY21                          COLEGALADDRESSLINE1 COLEGALADDRESSLRIDGEWOOD           NJ07450              NN20102010Y201012AY201012AY201012AY201012A                                                                                                                                                                                                                                        
TP000000022TESTCOMPANY22                          COLEGALADDRESSLINE1 COLEGALADDRESSLRIDGEWOOD           NJ07450              NN20102010Y201012AY201012AY201012AY201012A                                                                                                                                                                                                                                        
TP000000023TESTCOMPANY23                          COLEGALADDRESSLINE1 COLEGALADDRESSLRIDGEWOOD           NJ07450              NN20102010Y201012AY201012AY201012AY201012A                                                                                                                                                                                                                                        
TP000000024TESTCOMPANY24                          COLEGALADDRESSLINE1 COLEGALADDRESSLRIDGEWOOD           NJ07450              NN20102010Y201012AY201012AY201012AY201012A                                                                                                                                                                                                                                        
TP000000025TESTCOMPANY25                          COLEGALADDRESSLINE1 COLEGALADDRESSLRIDGEWOOD           NJ07450              NN20102010Y201012AY201012AY201012AY201012A                                                                                                                                                                                                                                        
TP000000026TESTCOMPANY26                          COLEGALADDRESSLINE1 COLEGALADDRESSLRIDGEWOOD           NJ07450              NN20102010Y201012AY201012AY201012AY201012A                                                                                                                                                                                                                                        
TP000000027TESTCOMPANY27                          COLEGALADDRESSLINE1 COLEGALADDRESSLRIDGEWOOD           NJ07450              NN20102010Y201012AY201012AY201012AY201012A                                                                                                                                                                                                                                        
TP000000028TESTCOMPANY28                          COLEGALADDRESSLINE1 COLEGALADDRESSLRIDGEWOOD           NJ07450              NN20102010Y201012AY201012AY201012AY201012A                                                                                                                                                                                                                                        
TP000000029TESTCOMPANY29                          COLEGALADDRESSLINE1 COLEGALADDRESSLRIDGEWOOD           NJ07450              NN20102010Y201012AY201012AY201012AY201012A                                                                                                                                                                                                                                        
TP000000030TESTCOMPANY30                          COLEGALADDRESSLINE1 COLEGALADDRESSLRIDGEWOOD           NJ07450              NN20102010Y201012AY201012AY201012AY201012A                                                                                                                                                                                                                                        
TP000000031TESTCOMPANY31                          COLEGALADDRESSLINE1 COLEGALADDRESSLRIDGEWOOD           NJ07450              NN20102010Y201012AY201012AY201012AY201012A                                                                                                                                                                                                                                        
TP000000032TESTCOMPANY32                          COLEGALADDRESSLINE1 COLEGALADDRESSLRIDGEWOOD           NJ07450              NN20102010Y201012AY201012AY201012AY201012A                                                                                                                                                                                                                                        
TP000000033TESTCOMPANY33                          COLEGALADDRESSLINE1 COLEGALADDRESSLRIDGEWOOD           NJ07450              NN20102010Y201012AY201012AY201012AY201012A                                                                                                                                                                                                                                        
TP000000034TESTCOMPANY34                          COLEGALADDRESSLINE1 COLEGALADDRESSLRIDGEWOOD           NJ07450              NN20102010Y201012AY201012AY201012AY201012A                                                                                                                                                                                                                                        
TP000000035TESTCOMPANY35                          COLEGALADDRESSLINE1 COLEGALADDRESSLRIDGEWOOD           NJ07450              NN20102010Y201012AY201012AY201012AY201012A                                                                                                                                                                                                                                        
TP000000036TESTCOMPANY36                          COLEGALADDRESSLINE1 COLEGALADDRESSLRIDGEWOOD           NJ07450              NN20102010Y201012AY201012AY201012AY201012A                                                                                                                                                                                                                                        
TP000000037TESTCOMPANY37                          COLEGALADDRESSLINE1 COLEGALADDRESSLRIDGEWOOD           NJ07450              NN20102010Y201012AY201012AY201012AY201012A                                                                                                                                                                                                                                        
TP000000038TESTCOMPANY38                          COLEGALADDRESSLINE1 COLEGALADDRESSLRIDGEWOOD           NJ07450              NN20102010Y201012AY201012AY201012AY201012A                                                                                                                                                                                                                                        
TP000000039TESTCOMPANY39                          COLEGALADDRESSLINE1 COLEGALADDRESSLRIDGEWOOD           NJ07450              NN20102010Y201012AY201012AY201012AY201012A                                                                                                                                                                                                                                        
TP000000040TESTCOMPANY40                          COLEGALADDRESSLINE1 COLEGALADDRESSLRIDGEWOOD           NJ07450              NN20102010Y201012AY201012AY201012AY201012A                                                                                                                                                                                                                                        
TP000000041TESTCOMPANY41                          COLEGALADDRESSLINE1 COLEGALADDRESSLRIDGEWOOD           NJ07450              NN20102010Y201012AY201012AY201012AY201012A                                                                                                                                                                                                                                        
TP000000042TESTCOMPANY42                          COLEGALADDRESSLINE1 COLEGALADDRESSLRIDGEWOOD           NJ07450              NN20102010Y201012AY201012AY201012AY201012A                                                                                                                                                                                                                                        
TP000000043TESTCOMPANY43                          COLEGALADDRESSLINE1 COLEGALADDRESSLRIDGEWOOD           NJ07450              NN20102010Y201012AY201012AY201012AY201012A                                                                                                                                                                                                                                        
TP000000044TESTCOMPANY44                          COLEGALADDRESSLINE1 COLEGALADDRESSLRIDGEWOOD           NJ07450              NN20102010Y201012AY201012AY201012AY201012A                                                                                                                                                                                                                                        
TP000000045TESTCOMPANY45                          COLEGALADDRESSLINE1 COLEGALADDRESSLRIDGEWOOD           NJ07450              NN20102010Y201012AY201012AY201012AY201012A                                                                                                                                                                                                                                        
TP000000046TESTCOMPANY46                          COLEGALADDRESSLINE1 COLEGALADDRESSLRIDGEWOOD           NJ07450              NN20102010Y201012AY201012AY201012AY201012A                                                                                                                                                                                                                                        
TP000000047TESTCOMPANY47                          COLEGALADDRESSLINE1 COLEGALADDRESSLRIDGEWOOD           NJ07450              NN20102010Y201012AY201012AY201012AY201012A                                                                                                                                                                                                                                        
TP000000048TESTCOMPANY48                          COLEGALADDRESSLINE1 COLEGALADDRESSLRIDGEWOOD           NJ07450              NN20102010Y201012AY201012AY201012AY201012A                                                                                                                                                                                                                                        
TP000000049TESTCOMPANY49                          COLEGALADDRESSLINE1 COLEGALADDRESSLRIDGEWOOD           NJ07450              NN20102010Y201012AY201012AY201012AY201012A                                                                                                                                                                                                                                        
TP000000050TESTCOMPANY50                          COLEGALADDRESSLINE1 COLEGALADDRESSLRIDGEWOOD           NJ07450              NN20102010Y201012AY201012AY201012AY201012A                                                                                                                                                                                                                                        
TP000000051TESTCOMPANY51                          COLEGALADDRESSLINE1 COLEGALADDRESSLRIDGEWOOD           NJ07450              NN20102010Y201012AY201012AY201012AY201012A                                                                                                                                                                                                                                        
E000051                                                                                                                                                                                                                                                                                                                                                                                                         
