J C MILLIKEN AGENCY INC            01020581194120090912009462009121201012201003120102120100612010362011S       2011062199700JCMIGENERAL INSURANCE                  
LLOYD H WENTWORTH                  01026164494120090912009442009121201005201003120101820100612010312011M       2011061    00WENT                                   
FIRST PARISH CONGREGATIONAL CHURCH 01026351894120090912009442009121201005201003120101820100612010312011M       2011061    00FIRS                                   
SPANG ENTERPRISES INC              010282387941                                                    2011        0000000200810SPANBEACHWOOD MOTEL                    
HARRIS ISLAND INC                  01028350594120090912009442009121201005201003120101820100612010312011S       2011062200800HARR                                   
BLUE ROCK INDUSTRIES               01028370094120090912009442009121201005201003120101820100612010312011S       2011062199700BLUE                                   
ORTHODONTIC ASSOCIATES P A         01030999494120090912009442009121201005201003120101820100612010312011S       2011062199700ORTH                                   
MERIT POOLS OF PORTLAND INC        00000000194120090912009442009121201005201003120101820100612010312011M       2011061    00MERI                                   
YANKEE MACHINE INC                 00000000194120090912009442009121201005201003120101820100612010312011        2011062200700YANK                                   
LONGCHAMPS & SONS INC              01033316994120090912009442009121201005201003120101820100612010312011S       2011062200200LONG                                   
LITERATURE FULFILLMENT SERVICES INC01059310694120090912009442009121201005201003120101820100612010312011S       2011062200500LITE                                   
