101 02100002197226160001302011710W094101JPMORGAN CHASE         INTUIT                         
5225INTUIT PAYROLL SERVICES    7288572011722616679CCDQUICKBOOKS130204130204   1021000020000001
6273212707421234567896       0000007900728857201      (SHARLYNDA) PANDORA     0002381016110041
822500000100321270740000000079000000000000001722616679                         021000020000001
5225INTUIT PAYROLL SERVICES    6530002881722616679CCDQUICKBOOKS130204130204   1021000020000002
637123123123457870787645     0000007900653000288      03288 NEWACCTCO1 65-30  0002381016110043
822500000100123123120000000079000000000000001722616679                         021000020000002
5225INTUIT PAYROLL SERVICES    6530009771722616679CCDQUICKBOOKS130204130204   1021000020000003
63712312312354321            0000007900653000977      03977 ASSISTED IE8 SYS  0002381016110045
822500000100123123120000000079000000000000001722616679                         021000020000003
5225INTUIT PAYROLL SERVICES    6630001601722616679CCDQUICKBOOKS130204130204   1021000020000004
62712400001255555            0000007900663000160      04160 JASON SYSTEM ASS  0002381016110047
822500000100124000010000000079000000000000001722616679                         021000020000004
5225INTUIT PAYROLL SERVICES    6530002591722616679CCDQUICKBOOKS130204130204   1021000020000005
63712312312343323455         0000007900653000259      04259 FRIDAY FED PAYME  0002381016110049
822500000100123123120000000079000000000000001722616679                         021000020000005
5225INTUIT PAYROLL SERVICES    1093938881722616679CCDQUICKBOOKS130204130204   1021000020000006
62712120106354665555         0000007900109393888      050312 TIM ASSISTED Q1  0002381016110051
822500000100121201060000000079000000000000001722616679                         021000020000006
5225INTUIT PAYROLL SERVICES    6630001621722616679CCDQUICKBOOKS130204130204   1021000020000007
62712312312354321            0000007900663000162      05162 EWS-516 EDIT ASS  0002381016110053
822500000100123123120000000079000000000000001722616679                         021000020000007
5225INTUIT PAYROLL SERVICES    6530002891722616679CCDQUICKBOOKS130204130204   1021000020000008
637123123123576584932        0000007900653000289      07289 FRESH TEST COMPA  0002381016110055
822500000100123123120000000079000000000000001722616679                         021000020000008
5225INTUIT PAYROLL SERVICES    6802021111722616679CCDQUICKBOOKS130204130204   1021000020000009
627123123123100820211        0000007900680202111      08 DISCO ENT            0002381016110057
822500000100123123120000000079000000000000001722616679                         021000020000009
5225INTUIT PAYROLL SERVICES    6630000591722616679CCDQUICKBOOKS130204130204   1021000020000010
63712312312312345            0000007900663000059      08059 C05 ASSISTED NOC  0002381016110059
822500000100123123120000000079000000000000001722616679                         021000020000010
5225INTUIT PAYROLL SERVICES    6530002911722616679CCDQUICKBOOKS130204130204   1021000020000011
6371231231235867985765       0000007900653000291      09291 TRIPLE CHECK 65-  0002381016110061
822500000100123123120000000079000000000000001722616679                         021000020000011
5225INTUIT PAYROLL SERVICES    0813576431722616679CCDQUICKBOOKS130204130204   1021000020000012
627051000017876875           0000007900081357643      10-25-11 RECOVERY       0002381016110063
822500000100051000010000000079000000000000001722616679                         021000020000012
5225INTUIT PAYROLL SERVICES    7889895411722616679CCDQUICKBOOKS130204130204   1021000020000013
62712312312324897978         0000006900788989541      10-25-12 QA1            0002381016110065
822500000100123123120000000069000000000000001722616679                         021000020000013
5225INTUIT PAYROLL SERVICES    6405801221722616679CCDQUICKBOOKS130204130204   1021000020000014
6273212707426565000477       0000007900640580122      1005 ACTIVE BUT ONLY Z  0002381016110067
822500000100321270740000000079000000000000001722616679                         021000020000014
5225INTUIT PAYROLL SERVICES    6405265461722616679CCDQUICKBOOKS130204130204   1021000020000015
6273212707428054012          0000007900640526546      1006 BALANCE FILE WITH  0002381016110069
822500000100321270740000000079000000000000001722616679                         021000020000015
5225INTUIT PAYROLL SERVICES    6630000631722616679CCDQUICKBOOKS130204130204   1021000020000016
63712312312312345            0000007900663000063      10063 NOC 6 AND 7 66-3  0002381016110071
822500000100123123120000000079000000000000001722616679                         021000020000016
5225INTUIT PAYROLL SERVICES    4623954271722616679CCDQUICKBOOKS130204130204   1021000020000017
6271149102221234567890       0000007900462395427      10112011532FRINGILLA M  0002381016110073
822500000100114910220000000079000000000000001722616679                         021000020000017
5225INTUIT PAYROLL SERVICES    2568864221722616679CCDQUICKBOOKS130204130204   1021000020000018
6271231231233569615538       0000008374256886422      10122011755ET, COMMODO  0002381016110075
822500000100123123120000000083740000000000001722616679                         021000020000018
5225INTUIT PAYROLL SERVICES    4398456431722616679CCDQUICKBOOKS130204130204   1021000020000019
627265473812123456789        0000007900439845643      1082011305DUIS VOLUTPA  0002381016110077
822500000100265473810000000079000000000000001722616679                         021000020000019
5225INTUIT PAYROLL SERVICES    1158901321722616679CCDQUICKBOOKS130204130204   1021000020000020
6271231231231917551463       0000007900115890132      1082011613ERAT NEQUE    0002381016110079
822500000100123123120000000079000000000000001722616679                         021000020000020
5225INTUIT PAYROLL SERVICES    0951477411722616679CCDQUICKBOOKS130204130204   1021000020000021
627051000017123408979078     0000007900095147741      11-15-11 RECOVERY       0002381016110081
822500000100051000010000000079000000000000001722616679                         021000020000021
5225INTUIT PAYROLL SERVICES    0748452671722616679CCDQUICKBOOKS130204130204   1021000020000022
627051000017123487897        0000007900074845267      11-30-11 DISASTER RECO  0002381016110083
822500000100051000010000000079000000000000001722616679                         021000020000022
5225INTUIT PAYROLL SERVICES    3910237581722616679CCDQUICKBOOKS130204130204   1021000020000023
627124301054238906543        0000008414391023758      11172011852ARCU EU ODI  0002381016110085
822500000100124301050000000084140000000000001722616679                         021000020000023
5225INTUIT PAYROLL SERVICES    6388935861722616679CCDQUICKBOOKS130204130204   1021000020000024
6272441836021289067854       0000007900638893586      11302011797NULLA. DONE  0002381016110087
822500000100244183600000000079000000000000001722616679                         021000020000024
5225INTUIT PAYROLL SERVICES    6630002821722616679CCDQUICKBOOKS130204130204   1021000020000025
63712400001212345            0000007900663000282      12282 ASST SYS AZ NJ S  0002381016110089
822500000100124000010000000079000000000000001722616679                         021000020000025
5225INTUIT PAYROLL SERVICES    6630000691722616679CCDQUICKBOOKS130204130204   1021000020000026
63712312312312345            0000007900663000069      13069 ASSISTED SYS 66-  0002381016110091
822500000100123123120000000079000000000000001722616679                         021000020000026
5225INTUIT PAYROLL SERVICES    0448208361722616679CCDQUICKBOOKS130204130204   1021000020000027
6272441836021324567891       0000007900044820836      13120123RISUS A ULTRIC  0002381016110093
822500000100244183600000000079000000000000001722616679                         021000020000027
5225INTUIT PAYROLL SERVICES    6630001261722616679CCDQUICKBOOKS130204130204   1021000020000028
62712312312312345            0000007900663000126      13126 BUY ASSISTED IN   0002381016110095
822500000100123123120000000079000000000000001722616679                         021000020000028
5225INTUIT PAYROLL SERVICES    6530002341722616679CCDQUICKBOOKS130204130204   1021000020000029
63712312312384384848         0000007900653000234      13234 22029 RESOLUTION  0002381016110097
822500000100123123120000000079000000000000001722616679                         021000020000029
5225INTUIT PAYROLL SERVICES    6530002371722616679CCDQUICKBOOKS130204130204   1021000020000030
6371231231234747783333       0000007900653000237      14237 DTC RR 65-300023  0002381016110099
822500000100123123120000000079000000000000001722616679                         021000020000030
5225INTUIT PAYROLL SERVICES    6530002661722616679CCDQUICKBOOKS130204130204   1021000020000031
637123123123484848443        0000007900653000266      15266 TESTING HOLD REM  0002381016110101
822500000100123123120000000079000000000000001722616679                         021000020000031
5225INTUIT PAYROLL SERVICES    6630000841722616679CCDQUICKBOOKS130204130204   1021000020000032
63712312312312345            0000007900663000084      17084 ASST BACKDATE 2   0002381016110103
822500000100123123120000000079000000000000001722616679                         021000020000032
5225INTUIT PAYROLL SERVICES    6630000851722616679CCDQUICKBOOKS130204130204   1021000020000033
63712312312312345            0000007900663000085      17085 REAL ASST 2 STAT  0002381016110105
822500000100123123120000000079000000000000001722616679                         021000020000033
5225INTUIT PAYROLL SERVICES    6630001311722616679CCDQUICKBOOKS130204130204   1021000020000034
63712312312312345            0000007900663000131      17131 PENDING SETUP BA  0002381016110107
822500000100123123120000000079000000000000001722616679                         021000020000034
5225INTUIT PAYROLL SERVICES    6630002901722616679CCDQUICKBOOKS130204130204   1021000020000035
63712312312312345            0000013500663000290      17290 ASSISTED ADVANTA  0002381016110109
822500000100123123120000000135000000000000001722616679                         021000020000035
5225INTUIT PAYROLL SERVICES    3218042011722616679CCDQUICKBOOKS130204130204   1021000020000036
6271243030652314567891       0000007900321804201      18 EMPLOYEE MN FILE     0002381016110111
822500000100124303060000000079000000000000001722616679                         021000020000036
5225INTUIT PAYROLL SERVICES    6630001321722616679CCDQUICKBOOKS130204130204   1021000020000037
63712312312312345            0000007900663000132      18132 INPROD SYS ASST   0002381016110113
822500000100123123120000000079000000000000001722616679                         021000020000037
5225INTUIT PAYROLL SERVICES    6630001401722616679CCDQUICKBOOKS130204130204   1021000020000038
63712312312312345            0000007900663000140      19140 DIDDD TO ASSISTE  0002381016110115
822500000100123123120000000079000000000000001722616679                         021000020000038
5225INTUIT PAYROLL SERVICES    6872447761722616679CCDQUICKBOOKS130204130204   1021000020000039
62712312312323490098         0000008421687244776      1BALF INFO QA1          0002381016110117
822500000100123123120000000084210000000000001722616679                         021000020000039
5225INTUIT PAYROLL SERVICES    0529352191722616679CCDQUICKBOOKS130204130204   1021000020000040
627051000017432094832048     0000007900052935219      1ST RECOVERY FILE 594   0002381016110119
822500000100051000010000000079000000000000001722616679                         021000020000040
5225INTUIT PAYROLL SERVICES    6372679891722616679CCDQUICKBOOKS130204130204   1021000020000041
62712120106332432423432      0000007900637267989      2 050312 TIM ASST Q1    0002381016110121
822500000100121201060000000079000000000000001722616679                         021000020000041
5225INTUIT PAYROLL SERVICES    7685487771722616679CCDQUICKBOOKS130204130204   1021000020000042
627123123123123498978        0000007900768548777      2 10-26-12 QA1          0002381016110123
822500000100123123120000000079000000000000001722616679                         021000020000042
5225INTUIT PAYROLL SERVICES    4441022001722616679CCDQUICKBOOKS130204130204   1021000020000043
6270510000171238908          0000007900444102200      2 8-13-12 QA1           0002381016110125
822500000100051000010000000079000000000000001722616679                         021000020000043
5225INTUIT PAYROLL SERVICES    4774111151722616679CCDQUICKBOOKS130204130204   1021000020000044
627051000017123890809        0000007900477411115      2 8-7-12 QA1            0002381016110127
822500000100051000010000000079000000000000001722616679                         021000020000044
5225INTUIT PAYROLL SERVICES    7922221771722616679CCDQUICKBOOKS130204130204   1021000020000045
63712312312310239090         0000007900792222177      2 8-8-12 QA1            0002381016110129
822500000100123123120000000079000000000000001722616679                         021000020000045
5225INTUIT PAYROLL SERVICES    9111558251722616679CCDQUICKBOOKS130204130204   1021000020000046
62712120106366488888         0000007900911155825      2 BLY BLY BUSY BLIES    0002381016110131
822500000100121201060000000079000000000000001722616679                         021000020000046
5225INTUIT PAYROLL SERVICES    2000028861722616679CCDQUICKBOOKS130204130204   1021000020000047
6270510000178419080980       0000007900200002886      2 CLEAN SUI             0002381016110133
822500000100051000010000000079000000000000001722616679                         021000020000047
5225INTUIT PAYROLL SERVICES    0852233561722616679CCDQUICKBOOKS130204130204   1021000020000048
62705100001796491961         0000007900085223356      2-16-12 QA 1            0002381016110135
822500000100051000010000000079000000000000001722616679                         021000020000048
5225INTUIT PAYROLL SERVICES    0898465201722616679CCDQUICKBOOKS130204130204   1021000020000049
627051000017139080980        0000007900089846520      2-20-12 QA1 594         0002381016110137
822500000100051000010000000079000000000000001722616679                         021000020000049
5225INTUIT PAYROLL SERVICES    0821388891722616679CCDQUICKBOOKS130204130204   1021000020000050
62705100001712349087897      0000007900082138889      2-27-12 QA 1            0002381016110139
822500000100051000010000000079000000000000001722616679                         021000020000050
5225INTUIT PAYROLL SERVICES    0820001141722616679CCDQUICKBOOKS130204130204   1021000020000051
627051000017234908908234     0000007900082000114      2-28-12 QA1 594         0002381016110141
822500000100051000010000000079000000000000001722616679                         021000020000051
5225INTUIT PAYROLL SERVICES    4785555441722616679CCDQUICKBOOKS130204130204   1021000020000052
627123123123348888800        0000007900478555544      2-9-11-12 QA 1          0002381016110143
822500000100123123120000000079000000000000001722616679                         021000020000052
5225INTUIT PAYROLL SERVICES    0874110051722616679CCDQUICKBOOKS130204130204   1021000020000053
62705100001723409735905780   0000007900087411005      2-9-12 QA1 594          0002381016110145
822500000100051000010000000079000000000000001722616679                         021000020000053
5225INTUIT PAYROLL SERVICES    5874322251722616679CCDQUICKBOOKS130204130204   1021000020000054
627123123123128786           0000006715587432225      2-9-22-12 QA1           0002381016110147
822500000100123123120000000067150000000000001722616679                         021000020000054
5225INTUIT PAYROLL SERVICES    7689887741722616679CCDQUICKBOOKS130204130204   1021000020000055
627123123123328979           0000007900768988774      2-DD-ASST 11-15-12 QA1  0002381016110149
822500000100123123120000000079000000000000001722616679                         021000020000055
5225INTUIT PAYROLL SERVICES    6630000871722616679CCDQUICKBOOKS130204130204   1021000020000056
63712312312312345            0000007900663000087      20086 ASST EMPLOYEE BO  0002381016110151
822500000100123123120000000079000000000000001722616679                         021000020000056
5225INTUIT PAYROLL SERVICES    8645978951722616679CCDQUICKBOOKS130204130204   1021000020000057
62712312312312398797         0000007900864597895      2013 10-24-12 QA1       0002381016110153
822500000100123123120000000079000000000000001722616679                         021000020000057
5225INTUIT PAYROLL SERVICES    6630002981722616679CCDQUICKBOOKS130204130204   1021000020000058
63712400001212345            0000007900663000298      20298 SYS REGRESSION A  0002381016110155
822500000100124000010000000079000000000000001722616679                         021000020000058
5225INTUIT PAYROLL SERVICES    6630000881722616679CCDQUICKBOOKS130204130204   1021000020000059
63712312312312345            0000007900663000088      21088 RUINATION 66-300  0002381016110157
822500000100123123120000000079000000000000001722616679                         021000020000059
5225INTUIT PAYROLL SERVICES    6630000891722616679CCDQUICKBOOKS130204130204   1021000020000060
627091050807123456           0000007900663000089      21089 TEST ZACKTOOL 66  0002381016110159
822500000100091050800000000079000000000000001722616679                         021000020000060
5225INTUIT PAYROLL SERVICES    7321090341722616679CCDQUICKBOOKS130204130204   1021000020000061
6271149102222317890654       0000007900732109034      212012524ADIPISCING NO  0002381016110161
822500000100114910220000000079000000000000001722616679                         021000020000061
5225INTUIT PAYROLL SERVICES    3688159081722616679CCDQUICKBOOKS130204130204   1021000020000062
6271149102221345678923       0000007900368815908      212012815PORTTITOR VUL  0002381016110163
822500000100114910220000000079000000000000001722616679                         021000020000062
5225INTUIT PAYROLL SERVICES    6630002991722616679CCDQUICKBOOKS130204130204   1021000020000063
63712400001212345            0000013500663000299      21299 SYS AGENT ASSIST  0002381016110165
822500000100124000010000000135000000000000001722616679                         021000020000063
5225INTUIT PAYROLL SERVICES    6630000911722616679CCDQUICKBOOKS130204130204   1021000020000064
63712312312312345            0000007900663000091      22091 C06 66-3000091    0002381016110167
822500000100123123120000000079000000000000001722616679                         021000020000064
5225INTUIT PAYROLL SERVICES    6630000941722616679CCDQUICKBOOKS130204130204   1021000020000065
63712312312354321            0000007900663000094      23094 EENOC 66-3000094  0002381016110169
822500000100123123120000000079000000000000001722616679                         021000020000065
5225INTUIT PAYROLL SERVICES    6630000961722616679CCDQUICKBOOKS130204130204   1021000020000066
637123123123987561           0000007900663000096      24096 EE REJ1 ER NOC A  0002381016110171
822500000100123123120000000079000000000000001722616679                         021000020000066
5225INTUIT PAYROLL SERVICES    6630000971722616679CCDQUICKBOOKS130204130204   1021000020000067
63712312312312344            0000007900663000097      24097 EE REVERSALS ASS  0002381016110173
822500000100123123120000000079000000000000001722616679                         021000020000067
5225INTUIT PAYROLL SERVICES    6630001431722616679CCDQUICKBOOKS130204130204   1021000020000068
63712312312312345            0000007900663000143      24143 2010 ASST BUY 66  0002381016110175
822500000100123123120000000079000000000000001722616679                         021000020000068
5225INTUIT PAYROLL SERVICES    6630001041722616679CCDQUICKBOOKS130204130204   1021000020000069
63712312312312345            0000007900663000104      28104 ASSISTED SYS RER  0002381016110177
822500000100123123120000000079000000000000001722616679                         021000020000069
5225INTUIT PAYROLL SERVICES    7159652181722616679CCDQUICKBOOKS130204130204   1021000020000070
6271231231230372964179       0000007900715965218      282012423AT RISUS. NUN  0002381016110179
822500000100123123120000000079000000000000001722616679                         021000020000070
5225INTUIT PAYROLL SERVICES    6530009681722616679CCDQUICKBOOKS130204130204   1021000020000071
63712312312312345            0000007900653000968      28968 TRANSITION ACCT   0002381016110181
822500000100123123120000000079000000000000001722616679                         021000020000071
5225INTUIT PAYROLL SERVICES    4578563201722616679CCDQUICKBOOKS130204130204   1021000020000072
6270510000172340925089       0000007900457856320      2ND HALF 9-12-11        0002381016110183
822500000100051000010000000079000000000000001722616679                         021000020000072
5225INTUIT PAYROLL SERVICES    9715422031722616679CCDQUICKBOOKS130204130204   1021000020000073
62705100001712412323         0000007900971542203      2ND RECOVERY FILE       0002381016110185
822500000100051000010000000079000000000000001722616679                         021000020000073
5225INTUIT PAYROLL SERVICES    7815445451722616679CCDQUICKBOOKS130204130204   1021000020000074
6271231231231238090          0000005865781544545      2VER 10-8-12 QA 1       0002381016110187
822500000100123123120000000058650000000000001722616679                         021000020000074
5225INTUIT PAYROLL SERVICES    2900080021722616679CCDQUICKBOOKS130204130204   1021000020000075
62705100001748290089         0000005900290008002      2N 6-19-12 RGRESS QA1   0002381016110189
822500000100051000010000000059000000000000001722616679                         021000020000075
5225INTUIT PAYROLL SERVICES    7000888641722616679CCDQUICKBOOKS130204130204   1021000020000076
627123123123123879879        0000007900700088864      2ND MULTIPLEEVENTS QA   0002381016110191
822500000100123123120000000079000000000000001722616679                         021000020000076
5225INTUIT PAYROLL SERVICES    0129910291722616679CCDQUICKBOOKS130204130204   1021000020000077
627051000017143098098        0000007900012991029      3 RATE CLEAN            0002381016110193
822500000100051000010000000079000000000000001722616679                         021000020000077
5225INTUIT PAYROLL SERVICES    0202938881722616679CCDQUICKBOOKS130204130204   1021000020000078
627051000017183298321080     0000007900020293888      3-13-12 594             0002381016110195
822500000100051000010000000079000000000000001722616679                         021000020000078
5225INTUIT PAYROLL SERVICES    0974575101722616679CCDQUICKBOOKS130204130204   1021000020000079
62705100001714987891247987   0000007900097457510      3-14-12 QA1             0002381016110197
822500000100051000010000000079000000000000001722616679                         021000020000079
5225INTUIT PAYROLL SERVICES    0774215571722616679CCDQUICKBOOKS130204130204   1021000020000080
627051000017123901823098     0000007900077421557      3-15-12 594             0002381016110199
822500000100051000010000000079000000000000001722616679                         021000020000080
5225INTUIT PAYROLL SERVICES    0614444111722616679CCDQUICKBOOKS130204130204   1021000020000081
62705100001715489012590      0000007900061444411      3-19-12 REGRESSION      0002381016110201
822500000100051000010000000079000000000000001722616679                         021000020000081
5225INTUIT PAYROLL SERVICES    0855665651722616679CCDQUICKBOOKS130204130204   1021000020000082
627051000017123487987897     0000007900085566565      3-2-12 QA1 594          0002381016110203
822500000100051000010000000079000000000000001722616679                         021000020000082
5225INTUIT PAYROLL SERVICES    0612900091722616679CCDQUICKBOOKS130204130204   1021000020000083
62705100001734289071248907   0000007900061290009      3-20-12 REGRESS         0002381016110205
822500000100051000010000000079000000000000001722616679                         021000020000083
5225INTUIT PAYROLL SERVICES    0548885471722616679CCDQUICKBOOKS130204130204   1021000020000084
62705100001713490879087      0000007900054888547      3-21-12 REGRESS 594     0002381016110207
822500000100051000010000000079000000000000001722616679                         021000020000084
5225INTUIT PAYROLL SERVICES    0820002111722616679CCDQUICKBOOKS130204130204   1021000020000085
6270510000171329879879       0000007900082000211      3-6-12 QA1 594          0002381016110209
822500000100051000010000000079000000000000001722616679                         021000020000085
5225INTUIT PAYROLL SERVICES    0823891201722616679CCDQUICKBOOKS130204130204   1021000020000086
6270510000173214098787       0000007900082389120      3-7-12 QA1 594-1        0002381016110211
822500000100051000010000000079000000000000001722616679                         021000020000086
5225INTUIT PAYROLL SERVICES    9875587881722616679CCDQUICKBOOKS130204130204   1021000020000087
6271231231232343897          0000005900987558788      3-PSRV003830 QA1        0002381016110213
822500000100123123120000000059000000000000001722616679                         021000020000087
5225INTUIT PAYROLL SERVICES    2398887771722616679CCDQUICKBOOKS130204130204   1021000020000088
6271212010634535436543       0000007900239888777      3008 ASSISTED TEST      0002381016110215
822500000100121201060000000079000000000000001722616679                         021000020000088
5225INTUIT PAYROLL SERVICES    6530005301722616679CCDQUICKBOOKS130204130204   1021000020000089
637123123123123456           0000007900653000530      31530WIN7DT ASSISTED 6  0002381016110217
822500000100123123120000000079000000000000001722616679                         021000020000089
5225INTUIT PAYROLL SERVICES    0777715551722616679CCDQUICKBOOKS130204130204   1021000020000090
627051000017235251256667     0000005865077771555      3459 7-6-12 QA1         0002381016110219
822500000100051000010000000058650000000000001722616679                         021000020000090
5225INTUIT PAYROLL SERVICES    3601111111722616679CCDQUICKBOOKS130204130204   1021000020000091
627321270742333333333333     0000007900360111111      360 UAT 1               0002381016110221
822500000100321270740000000079000000000000001722616679                         021000020000091
5225INTUIT PAYROLL SERVICES    3600110111722616679CCDQUICKBOOKS130204130204   1021000020000092
62709105080712345-12345      0000007900360011011      360 UAT 11              0002381016110223
822500000100091050800000000079000000000000001722616679                         021000020000092
5225INTUIT PAYROLL SERVICES    3600120121722616679CCDQUICKBOOKS130204130204   1021000020000093
62709105080712345-12345      0000007900360012012      360 UAT 12              0002381016110225
822500000100091050800000000079000000000000001722616679                         021000020000093
5225INTUIT PAYROLL SERVICES    3600130131722616679CCDQUICKBOOKS130204130204   1021000020000094
62709105080712345-12345      0000007900360013013      360 UAT 13              0002381016110227
822500000100091050800000000079000000000000001722616679                         021000020000094
5225INTUIT PAYROLL SERVICES    3600140141722616679CCDQUICKBOOKS130204130204   1021000020000095
62709105080712345-12345      0000007900360014014      360 UAT 14              0002381016110229
822500000100091050800000000079000000000000001722616679                         021000020000095
5225INTUIT PAYROLL SERVICES    3600150151722616679CCDQUICKBOOKS130204130204   1021000020000096
62709105080712345-12345      0000007900360015015      360 UAT 15              0002381016110231
822500000100091050800000000079000000000000001722616679                         021000020000096
5225INTUIT PAYROLL SERVICES    3600160161722616679CCDQUICKBOOKS130204130204   1021000020000097
62709105080712345-12345      0000007900360016016      360 UAT 16              0002381016110233
822500000100091050800000000079000000000000001722616679                         021000020000097
5225INTUIT PAYROLL SERVICES    3600170171722616679CCDQUICKBOOKS130204130204   1021000020000098
62709105080712345-12345      0000007900360017017      360 UAT 17              0002381016110235
822500000100091050800000000079000000000000001722616679                         021000020000098
5225INTUIT PAYROLL SERVICES    3600180181722616679CCDQUICKBOOKS130204130204   1021000020000099
62709105080712345-12345      0000007900360018018      360 UAT 18              0002381016110237
822500000100091050800000000079000000000000001722616679                         021000020000099
5225INTUIT PAYROLL SERVICES    3600190191722616679CCDQUICKBOOKS130204130204   1021000020000100
62709105080712345-12345      0000007900360019019      360 UAT 19              0002381016110239
822500000100091050800000000079000000000000001722616679                         021000020000100
5225INTUIT PAYROLL SERVICES    3602222221722616679CCDQUICKBOOKS130204130204   1021000020000101
627322271627322271627        0000007900360222222      360 UAT 2               0002381016110241
822500000100322271620000000079000000000000001722616679                         021000020000101
5225INTUIT PAYROLL SERVICES    3600200201722616679CCDQUICKBOOKS130204130204   1021000020000102
62709105080712345-12345      0000007900360020020      360 UAT 20              0002381016110243
822500000100091050800000000079000000000000001722616679                         021000020000102
5225INTUIT PAYROLL SERVICES    3600210211722616679CCDQUICKBOOKS130204130204   1021000020000103
62709105080712345-12345      0000007900360021021      360 UAT 21              0002381016110245
822500000100091050800000000079000000000000001722616679                         021000020000103
5225INTUIT PAYROLL SERVICES    3600220221722616679CCDQUICKBOOKS130204130204   1021000020000104
62709105080712345-12345      0000007900360022022      360 UAT 22              0002381016110247
822500000100091050800000000079000000000000001722616679                         021000020000104
5225INTUIT PAYROLL SERVICES    3600230231722616679CCDQUICKBOOKS130204130204   1021000020000105
62709105080712345-12345      0000007900360023023      360 UAT 23              0002381016110249
822500000100091050800000000079000000000000001722616679                         021000020000105
5225INTUIT PAYROLL SERVICES    3603333331722616679CCDQUICKBOOKS130204130204   1021000020000106
627321270742123455789        0000007900360333333      360 UAT 3               0002381016110251
822500000100321270740000000079000000000000001722616679                         021000020000106
5225INTUIT PAYROLL SERVICES    3604444441722616679CCDQUICKBOOKS130204130204   1021000020000107
62709105080712345-12345      0000007900360444444      360 UAT 4               0002381016110253
822500000100091050800000000079000000000000001722616679                         021000020000107
5225INTUIT PAYROLL SERVICES    3605555551722616679CCDQUICKBOOKS130204130204   1021000020000108
62709105080712345-12345      0000007900360555555      360 UAT 5               0002381016110255
822500000100091050800000000079000000000000001722616679                         021000020000108
5225INTUIT PAYROLL SERVICES    3606666661722616679CCDQUICKBOOKS130204130204   1021000020000109
62709105080712345-12345      0000007900360666666      360 UAT 6               0002381016110257
822500000100091050800000000079000000000000001722616679                         021000020000109
5225INTUIT PAYROLL SERVICES    3607777771722616679CCDQUICKBOOKS130204130204   1021000020000110
62709105080712345-12345      0000007900360777777      360 UAT 7               0002381016110259
822500000100091050800000000079000000000000001722616679                         021000020000110
5225INTUIT PAYROLL SERVICES    3608888881722616679CCDQUICKBOOKS130204130204   1021000020000111
62709105080712345-12345      0000007900360888888      360 UAT 8               0002381016110261
822500000100091050800000000079000000000000001722616679                         021000020000111
5225INTUIT PAYROLL SERVICES    3915847891722616679CCDQUICKBOOKS130204130204   1021000020000112
627121201063654654654        0000007900391584789      391584789 ASSISTED      0002381016110263
822500000100121201060000000079000000000000001722616679                         021000020000112
5225INTUIT PAYROLL SERVICES    9299382141722616679CCDQUICKBOOKS130204130204   1021000020000113
6272441836023214356677       0000007900929938214      392012665SAPIEN. AENEA  0002381016110265
822500000100244183600000000079000000000000001722616679                         021000020000113
5225INTUIT PAYROLL SERVICES    6325186881722616679CCDQUICKBOOKS130204130204   1021000020000114
62712120106397655213233      0000007900632518688      3TONSOGUNS              0002381016110267
822500000100121201060000000079000000000000001722616679                         021000020000114
5225INTUIT PAYROLL SERVICES    3829384441722616679CCDQUICKBOOKS130204130204   1021000020000115
6271231231231432987987       0000005865382938444      3RD 10-25-12 QA1        0002381016110269
822500000100123123120000000058650000000000001722616679                         021000020000115
5225INTUIT PAYROLL SERVICES    8223554441722616679CCDQUICKBOOKS130204130204   1021000020000116
6271231231231345631341       0000007900822355444      3RD MULTIPLEEVENTS QA   0002381016110271
822500000100123123120000000079000000000000001722616679                         021000020000116
5225INTUIT PAYROLL SERVICES    3332748881722616679CCDQUICKBOOKS130204130204   1021000020000117
6270510000171983279797813    0000007900333274888      4-26-12 QA1 594         0002381016110273
822500000100051000010000000079000000000000001722616679                         021000020000117
5225INTUIT PAYROLL SERVICES    9755544411722616679CCDQUICKBOOKS130204130204   1021000020000118
62705100001712389789146      0000007900975554441      4-27-12 QA1 594         0002381016110275
822500000100051000010000000079000000000000001722616679                         021000020000118
5225INTUIT PAYROLL SERVICES    5574102561722616679CCDQUICKBOOKS130204130204   1021000020000119
62705100001768876546876541   0000007900557410256      401K ASSISTED 6-8-11    0002381016110277
822500000100051000010000000079000000000000001722616679                         021000020000119
5225INTUIT PAYROLL SERVICES    0017017621722616679CCDQUICKBOOKS130204130204   1021000020000120
6271231231239750294690       0000007900001701762      452012475MAURIS, RHONC  0002381016110279
822500000100123123120000000079000000000000001722616679                         021000020000120
5225INTUIT PAYROLL SERVICES    8698439941722616679CCDQUICKBOOKS130204130204   1021000020000121
6271231231239448422707       0000007900869843994      452012779VARIUS ORCI,   0002381016110281
822500000100123123120000000079000000000000001722616679                         021000020000121
5225INTUIT PAYROLL SERVICES    7228882221722616679CCDQUICKBOOKS130204130204   1021000020000122
6270510000172140987987       0000007900722888222      4TH 1ST Q               0002381016110283
822500000100051000010000000079000000000000001722616679                         021000020000122
5225INTUIT PAYROLL SERVICES    7273739961722616679CCDQUICKBOOKS130204130204   1021000020000123
62712120106365462111         0000007900727373996      5395938961              0002381016110285
822500000100121201060000000079000000000000001722616679                         021000020000123
5225INTUIT PAYROLL SERVICES    2738299991722616679CCDQUICKBOOKS130204130204   1021000020000124
6271231231231238768          0000005900273829999      5TH 10-25-12 QA1        0002381016110287
822500000100123123120000000059000000000000001722616679                         021000020000124
5225INTUIT PAYROLL SERVICES    6544444451722616679CCDQUICKBOOKS130204130204   1021000020000125
627051000017123490780978     0000006900654444445      6-13-12 QA1 594         0002381016110289
822500000100051000010000000069000000000000001722616679                         021000020000125
5225INTUIT PAYROLL SERVICES    3258459991722616679CCDQUICKBOOKS130204130204   1021000020000126
6271212010639764646464       0000007900325845999      635DRINKINCOOLAID       0002381016110291
822500000100121201060000000079000000000000001722616679                         021000020000126
5225INTUIT PAYROLL SERVICES    6543258161722616679CCDQUICKBOOKS130204130204   1021000020000127
637121201063987654677656     0000007900654325816      653HEAVENAINT           0002381016110293
822500000100121201060000000079000000000000001722616679                         021000020000127
5225INTUIT PAYROLL SERVICES    9955887701722616679CCDQUICKBOOKS130204130204   1021000020000128
627051000017834098098        0000007900995588770      7-16-12 QA 1            0002381016110295
822500000100051000010000000079000000000000001722616679                         021000020000128
5225INTUIT PAYROLL SERVICES    7548757841722616679CCDQUICKBOOKS130204130204   1021000020000129
627051000017654981981        0000007900754875784      7-22-11 594             0002381016110297
822500000100051000010000000079000000000000001722616679                         021000020000129
5225INTUIT PAYROLL SERVICES    4145782301722616679CCDQUICKBOOKS130204130204   1021000020000130
62705100001764165016060      0000007900414578230      7-27-11 CHK PRINT QA 1  0002381016110299
822500000100051000010000000079000000000000001722616679                         021000020000130
5225INTUIT PAYROLL SERVICES    1253686891722616679CCDQUICKBOOKS130204130204   1021000020000131
6271212010639876546133       0000007900125368689      725SLOWNEAZY            0002381016110301
822500000100121201060000000079000000000000001722616679                         021000020000131
5225INTUIT PAYROLL SERVICES    1195877351722616679CCDQUICKBOOKS130204130204   1021000020000132
6271231231233089234217       0000008374119587735      772011230NEC TELLUS. N  0002381016110303
822500000100123123120000000083740000000000001722616679                         021000020000132
5225INTUIT PAYROLL SERVICES    5288177711722616679CCDQUICKBOOKS130204130204   1021000020000133
6271212010631234567893       0000007979528817771      772011311ALIQUET DIAM.  0002381016110305
822500000100121201060000000079790000000000001722616679                         021000020000133
5225INTUIT PAYROLL SERVICES    7588744021722616679CCDQUICKBOOKS130204130204   1021000020000134
62705100001712348908         0000007900758874402      8-13-12 QA1             0002381016110307
822500000100051000010000000079000000000000001722616679                         021000020000134
5225INTUIT PAYROLL SERVICES    9078999191722616679CCDQUICKBOOKS130204130204   1021000020000135
62705100001712489089         0000007900907899919      8-3-12 QA1 UPDATEDLEGA  0002381016110309
822500000100051000010000000079000000000000001722616679                         021000020000135
5225INTUIT PAYROLL SERVICES    0200022211722616679CCDQUICKBOOKS130204130204   1021000020000136
6270510000172183980          0000007900020002221      8-6-12 QA1              0002381016110311
822500000100051000010000000079000000000000001722616679                         021000020000136
5225INTUIT PAYROLL SERVICES    0838888221722616679CCDQUICKBOOKS130204130204   1021000020000137
627051000017890432109880     0000005900083888822      8-7-12 QA1              0002381016110313
822500000100051000010000000059000000000000001722616679                         021000020000137
5225INTUIT PAYROLL SERVICES    8841333301722616679CCDQUICKBOOKS130204130204   1021000020000138
62705100001782390808         0000007900884133330      8-8-12 QA1              0002381016110315
822500000100051000010000000079000000000000001722616679                         021000020000138
5225INTUIT PAYROLL SERVICES    6487501231722616679CCDQUICKBOOKS130204130204   1021000020000139
6271149102221234567892       0000007900648750123      8192011562EU DOLOR EGE  0002381016110317
822500000100114910220000000079000000000000001722616679                         021000020000139
5225INTUIT PAYROLL SERVICES    5214436751722616679CCDQUICKBOOKS130204130204   1021000020000140
6271231231231886306327       0000007900521443675      8302011406TURPIS EGEST  0002381016110319
822500000100123123120000000079000000000000001722616679                         021000020000140
5225INTUIT PAYROLL SERVICES    2003022011722616679CCDQUICKBOOKS130204130204   1021000020000141
62732127074258880132         0000007900200302201      9 MS EE Q2 ATF LEGAL    0002381016110321
822500000100321270740000000079000000000000001722616679                         021000020000141
5225INTUIT PAYROLL SERVICES    1329899921722616679CCDQUICKBOOKS130204130204   1021000020000142
627123123123234342324        0000007900132989992      9-16-12 QA1             0002381016110323
822500000100123123120000000079000000000000001722616679                         021000020000142
5225INTUIT PAYROLL SERVICES    7642000041722616679CCDQUICKBOOKS130204130204   1021000020000143
627123123123123980098        0000007900764200004      9-26-12 QA 1            0002381016110325
822500000100123123120000000079000000000000001722616679                         021000020000143
5225INTUIT PAYROLL SERVICES    9812628641722616679CCDQUICKBOOKS130204130204   1021000020000144
6271212010639765467657       0000007900981262864      986CHANGEGONE           0002381016110327
822500000100121201060000000079000000000000001722616679                         021000020000144
5225INTUIT PAYROLL SERVICES    2948989891722616679CCDQUICKBOOKS130204130204   1021000020000145
62712120106387987777         0000007900294898989      999062995 NO WAGES      0002381016110329
822500000100121201060000000079000000000000001722616679                         021000020000145
5225INTUIT PAYROLL SERVICES    5879092281722616679CCDQUICKBOOKS130204130204   1021000020000146
6271212010633453451          0000007900587909228      9FD3 ASSISTED MAIN E2E  0002381016110331
822500000100121201060000000079000000000000001722616679                         021000020000146
5225INTUIT PAYROLL SERVICES    3299990011722616679CCDQUICKBOOKS130204130204   1021000020000147
637121000248123457855        0000007900329999001      ACCOUNTING - KR TEST C  0002381016110333
822500000100121000240000000079000000000000001722616679                         021000020000147
5225INTUIT PAYROLL SERVICES    6530002781722616679CCDQUICKBOOKS130204130204   1021000020000148
6371231231235874874869       0000007900653000278      ACCOUNTING COMPANY 2 E  0002381016110335
822500000100123123120000000079000000000000001722616679                         021000020000148
5225INTUIT PAYROLL SERVICES    6530002821722616679CCDQUICKBOOKS130204130204   1021000020000149
6371231231234848585855       0000007900653000282      ACCOUNTING COMPANY ONE  0002381016110337
822500000100123123120000000079000000000000001722616679                         021000020000149
5225INTUIT PAYROLL SERVICES    2033315151722616679CCDQUICKBOOKS130204130204   1021000020000150
627121210106123123123        0000007900203331515      ACTIVE DD WITH DD4V TO  0002381016110339
822500000100121210100000000079000000000000001722616679                         021000020000150
5225INTUIT PAYROLL SERVICES    8464080001722616679CCDQUICKBOOKS130204130204   1021000020000151
627321270742321654987        0000007900846408000      AKNITTLE PLAY FILE      0002381016110341
822500000100321270740000000079000000000000001722616679                         021000020000151
5225INTUIT PAYROLL SERVICES    2220111111722616679CCDQUICKBOOKS130204130204   1021000020000152
62712210170634543543         0000007900222011111      ALABAMA Q1 LEGAL BASE   0002381016110343
822500000100122101700000000079000000000000001722616679                         021000020000152
5225INTUIT PAYROLL SERVICES    6019376451722616679CCDQUICKBOOKS130204130204   1021000020000153
6273212707428563247491       0000007900601937645      ALISSA'S AWESOME AESTH  0002381016110345
822500000100321270740000000079000000000000001722616679                         021000020000153
5225INTUIT PAYROLL SERVICES    6765769861722616679CCDQUICKBOOKS130204130204   1021000020000154
63712120106396564633123      0000007900676576986      AMINAL                  0002381016110347
822500000100121201060000000079000000000000001722616679                         021000020000154
5225INTUIT PAYROLL SERVICES    5911710441722616679CCDQUICKBOOKS130204130204   1021000020000155
6273212707421237890456       0000007900591171044      ANGEL, BENDINI, AND LO  0002381016110349
822500000100321270740000000079000000000000001722616679                         021000020000155
5225INTUIT PAYROLL SERVICES    9985442311722616679CCDQUICKBOOKS130204130204   1021000020000156
6371212010639876565778       0000007900998544231      ANIMALINSTINCTS         0002381016110351
822500000100121201060000000079000000000000001722616679                         021000020000156
5225INTUIT PAYROLL SERVICES    2501042011722616679CCDQUICKBOOKS130204130204   1021000020000157
62712410112812345609         0000007900250104201      AR 1EE Q4 ATF           0002381016110353
822500000100124101120000000079000000000000001722616679                         021000020000157
5225INTUIT PAYROLL SERVICES    2560042011722616679CCDQUICKBOOKS130204130204   1021000020000158
627124000054123908765        0000007900256004201      AR Q4 ATF BASE          0002381016110355
822500000100124000050000000079000000000000001722616679                         021000020000158
5225INTUIT PAYROLL SERVICES    4805042011722616679CCDQUICKBOOKS130204130204   1021000020000159
6271149237561234567891       0000007900480504201      ARIZONA 5 EE Q4 ATF     0002381016110357
822500000100114923750000000079000000000000001722616679                         021000020000159
5225INTUIT PAYROLL SERVICES    4806042011722616679CCDQUICKBOOKS130204130204   1021000020000160
62711491022212389076         0000007900480604201      ARIZONA 6 EE Q4 ATF     0002381016110359
822500000100114910220000000079000000000000001722616679                         021000020000160
5225INTUIT PAYROLL SERVICES    2535042011722616679CCDQUICKBOOKS130204130204   1021000020000161
62711491022212345609         0000007900253504201      ARKANSAS 35 EE TEST CO  0002381016110361
822500000100114910220000000079000000000000001722616679                         021000020000161
5225INTUIT PAYROLL SERVICES    2509042011722616679CCDQUICKBOOKS130204130204   1021000020000162
6273070842401234567891       0000007900250904201      ARKANSAS 9 EE Q4 ATF    0002381016110363
822500000100307084240000000079000000000000001722616679                         021000020000162
5225INTUIT PAYROLL SERVICES    2502201731722616679CCDQUICKBOOKS130204130204   1021000020000163
627122101706432563344        0000007900250220173      ARKANSAS BASE Q2 ATF L  0002381016110365
822500000100122101700000000079000000000000001722616679                         021000020000163
5225INTUIT PAYROLL SERVICES    2500042011722616679CCDQUICKBOOKS130204130204   1021000020000164
62711491022212349087         0000007900250004201      ARKANSAS NO EE Q4 ATF   0002381016110367
822500000100114910220000000079000000000000001722616679                         021000020000164
5225INTUIT PAYROLL SERVICES    4921345401722616679CCDQUICKBOOKS130204130204   1021000020000165
6273212707424567896543       0000007900492134540      AROBERTS EXAMPLE ASSIS  0002381016110369
822500000100321270740000000079000000000000001722616679                         021000020000165
5225INTUIT PAYROLL SERVICES    2104675641722616679CCDQUICKBOOKS130204130204   1021000020000166
62712120106354044444         0000009900210467564      AS400 STATE W2 QA1      0002381016110371
822500000100121201060000000099000000000000001722616679                         021000020000166
5225INTUIT PAYROLL SERVICES    5123619851722616679CCDQUICKBOOKS130204130204   1021000020000167
627321270742123654987        0000007900512361985      ASSISTED FOR GLENNH     0002381016110373
822500000100321270740000000079000000000000001722616679                         021000020000167
5225INTUIT PAYROLL SERVICES    2111911191722616679CCDQUICKBOOKS130204130204   1021000020000168
637110000000123213123        0000007900211191119      ASSISTED NO DD4V ENTRY  0002381016110375
822500000100110000000000000079000000000000001722616679                         021000020000168
5225INTUIT PAYROLL SERVICES    2012333221722616679CCDQUICKBOOKS130204130204   1021000020000169
627121210106123123123        0000007900201233322      ASST SNUP               0002381016110377
822500000100121210100000000079000000000000001722616679                         021000020000169
5225INTUIT PAYROLL SERVICES    8813330461722616679CCDQUICKBOOKS130204130204   1021000020000170
6371221017064645644645       0000007900881333046      ATF IA ERROR FILE LEGA  0002381016110379
822500000100122101700000000079000000000000001722616679                         021000020000170
5225INTUIT PAYROLL SERVICES    8823331011722616679CCDQUICKBOOKS130204130204   1021000020000171
62712210170645645645645      0000007900882333101      ATF IA WARNING TEST     0002381016110381
822500000100122101700000000079000000000000001722616679                         021000020000171
5225INTUIT PAYROLL SERVICES    9912234351722616679CCDQUICKBOOKS130204130204   1021000020000172
627121201063987646777        0000007900991223435      AUTOLIME                0002381016110383
822500000100121201060000000079000000000000001722616679                         021000020000172
5225INTUIT PAYROLL SERVICES    6412154921722616679CCDQUICKBOOKS130204130204   1021000020000173
62709105080712345-12345      0000007900641215492      ACME SOFTWARE           0002381016110385
822500000100091050800000000079000000000000001722616679                         021000020000173
5225INTUIT PAYROLL SERVICES    2179229221722616679CCDQUICKBOOKS130204130204   1021000020000174
62709105080712345-546321     0000007900217922922      ACME SOFTWARE           0002381016110387
822500000100091050800000000079000000000000001722616679                         021000020000174
5225INTUIT PAYROLL SERVICES    4638682831722616679CCDQUICKBOOKS130204130204   1021000020000175
62709105080712345-546321     0000007900463868283      ACME SOFTWARE           0002381016110389
822500000100091050800000000079000000000000001722616679                         021000020000175
5225INTUIT PAYROLL SERVICES    2693673711722616679CCDQUICKBOOKS130204130204   1021000020000176
62709105080712345-12990096   0000007900269367371      ACME SOFTWARE - BAD DE  0002381016110391
822500000100091050800000000079000000000000001722616679                         021000020000176
5225INTUIT PAYROLL SERVICES    1536386941722616679CCDQUICKBOOKS130204130204   1021000020000177
62709105080712345-1222896    0000007900153638694      ACME SOFTWARE - ER PAY  0002381016110393
822500000100091050800000000079000000000000001722616679                         021000020000177
5225INTUIT PAYROLL SERVICES    4566994161722616679CCDQUICKBOOKS130204130204   1021000020000178
62709105080712345-1222096    0000007900456699416      ACME SOFTWARE - ER PAY  0002381016110395
822500000100091050800000000079000000000000001722616679                         021000020000178
5225INTUIT PAYROLL SERVICES    1547611241722616679CCDQUICKBOOKS130204130204   1021000020000179
62709105080712345-1238866    0000007900154761124      ACME SOFTWARE - WRITE   0002381016110397
822500000100091050800000000079000000000000001722616679                         021000020000179
5225INTUIT PAYROLL SERVICES    5427334411722616679CCDQUICKBOOKS130204130204   1021000020000180
62709105080712345-1238866    0000007900542733441      ACME SOFTWARE - WRITE   0002381016110399
822500000100091050800000000079000000000000001722616679                         021000020000180
5225INTUIT PAYROLL SERVICES    2913474341722616679CCDQUICKBOOKS130204130204   1021000020000181
62709105080712345-1238896    0000007900291347434      ACME SOFTWARE - WRITE   0002381016110401
822500000100091050800000000079000000000000001722616679                         021000020000181
5225INTUIT PAYROLL SERVICES    6212621441722616679CCDQUICKBOOKS130204130204   1021000020000182
62709105080712345-546321     0000007900621262144      ACME SOFTWARE AGAIN     0002381016110403
822500000100091050800000000079000000000000001722616679                         021000020000182
5225INTUIT PAYROLL SERVICES    1234287861722616679CCDQUICKBOOKS130204130204   1021000020000183
62709105080712345-546321     0000007900123428786      ACME SOFTWARE CHANGED   0002381016110405
822500000100091050800000000079000000000000001722616679                         021000020000183
5225INTUIT PAYROLL SERVICES    7996431871722616679CCDQUICKBOOKS130204130204   1021000020000184
62709105080712345-546321     0000007900799643187      ACME SOFTWARE CHANGED   0002381016110407
822500000100091050800000000079000000000000001722616679                         021000020000184
5225INTUIT PAYROLL SERVICES    2629901111722616679CCDQUICKBOOKS130204130204   1021000020000185
62712312312312341156         0000007900262990111      AGENT 9-11-12 QA1       0002381016110409
822500000100123123120000000079000000000000001722616679                         021000020000185
5225INTUIT PAYROLL SERVICES    9555544891722616679CCDQUICKBOOKS130204130204   1021000020000186
627321171184465465           0000007900955554489      ASSISTED CF QA1 12_12_  0002381016110411
822500000100321171180000000079000000000000001722616679                         021000020000186
5225INTUIT PAYROLL SERVICES    3555123461722616679CCDQUICKBOOKS130204130204   1021000020000187
6271210003588754152          0000007900355512346      ASSISTED GL UAT         0002381016110413
822500000100121000350000000079000000000000001722616679                         021000020000187
5225INTUIT PAYROLL SERVICES    3253253251722616679CCDQUICKBOOKS130204130204   1021000020000188
627121122676876567           0000007900325325325      ASSISTED NIRVANA R3 10  0002381016110415
822500000100121122670000000079000000000000001722616679                         021000020000188
5225INTUIT PAYROLL SERVICES    3863863861722616679CCDQUICKBOOKS130204130204   1021000020000189
62712112267612432343         0000007900386386386      ASSISTED NIRVANAR3      0002381016110417
822500000100121122670000000079000000000000001722616679                         021000020000189
5225INTUIT PAYROLL SERVICES    5433455411722616679CCDQUICKBOOKS130204130204   1021000020000190
6371100000007883451          0000007900543345541      ASSISTEDPAYROLL2        0002381016110419
822500000100110000000000000079000000000000001722616679                         021000020000190
5225INTUIT PAYROLL SERVICES    3434343421722616679CCDQUICKBOOKS130204130204   1021000020000191
6271100000001123444          0000007900343434342      ASSISTEDPAYROLL4        0002381016110421
822500000100110000000000000079000000000000001722616679                         021000020000191
5225INTUIT PAYROLL SERVICES    2012112221722616679CCDQUICKBOOKS130204130204   1021000020000192
627124000012987654321        0000009900201211222      ASSISTEDSYMPHONY_CRASH  0002381016110423
822500000100124000010000000099000000000000001722616679                         021000020000192
5225INTUIT PAYROLL SERVICES    3213213231722616679CCDQUICKBOOKS130204130204   1021000020000193
62712112267623143565         0000009900321321323      ASSISTED_SYMPHONY_MONT  0002381016110425
822500000100121122670000000099000000000000001722616679                         021000020000193
5225INTUIT PAYROLL SERVICES    4120323331722616679CCDQUICKBOOKS130204130204   1021000020000194
62709105080712345-12345      0000007900412032333      ASST12-11-12 QA1        0002381016110427
822500000100091050800000000079000000000000001722616679                         021000020000194
5225INTUIT PAYROLL SERVICES    9393732131722616679CCDQUICKBOOKS130204130204   1021000020000195
6370113023570939373213       0000007900939373213      BALUKO_23022008NO TAC_  0002381016110429
822500000100011302350000000079000000000000001722616679                         021000020000195
5225INTUIT PAYROLL SERVICES    4860042011722616679CCDQUICKBOOKS130204130204   1021000020000196
62711491022245612345         0000007900486004201      BASE ARIZONA FILE FOR   0002381016110431
822500000100114910220000000079000000000000001722616679                         021000020000196
5225INTUIT PAYROLL SERVICES    3237042011722616679CCDQUICKBOOKS130204130204   1021000020000197
6271149237566712345612       0000007900323704201      BASE FILE MN FOR ATF Q  0002381016110433
822500000100114923750000000079000000000000001722616679                         021000020000197
5225INTUIT PAYROLL SERVICES    7379428031722616679CCDQUICKBOOKS130204130204   1021000020000198
627321270742963258741        0000007900737942803      BBENNETT ACTIVATIONS    0002381016110435
822500000100321270740000000079000000000000001722616679                         021000020000198
5225INTUIT PAYROLL SERVICES    5769754501722616679CCDQUICKBOOKS130204130204   1021000020000199
6273212707428742236359       0000007900576975450      BDELAVEGA TRAINING FIL  0002381016110437
822500000100321270740000000079000000000000001722616679                         021000020000199
5225INTUIT PAYROLL SERVICES    1307477651722616679CCDQUICKBOOKS130204130204   1021000020000200
6273212707423263369874       0000007900130747765      BIG SQUEEZE JUICE BAR   0002381016110439
822500000100321270740000000079000000000000001722616679                         021000020000200
5225INTUIT PAYROLL SERVICES    4016980821722616679CCDQUICKBOOKS130204130204   1021000020000201
6273212707421472583697       0000007900401698082      BOLSON - ACTIVATIONS    0002381016110441
822500000100321270740000000079000000000000001722616679                         021000020000201
5225INTUIT PAYROLL SERVICES    8802241111722616679CCDQUICKBOOKS130204130204   1021000020000202
627123123123123456789        0000007900880224111      BOOGIE DOWN             0002381016110443
822500000100123123120000000079000000000000001722616679                         021000020000202
5225INTUIT PAYROLL SERVICES    4618566651722616679CCDQUICKBOOKS130204130204   1021000020000203
6271212010636540044444       0000007900461856665      BULLIES IN THE NORTH    0002381016110445
822500000100121201060000000079000000000000001722616679                         021000020000203
5225INTUIT PAYROLL SERVICES    4531552971722616679CCDQUICKBOOKS130204130204   1021000020000204
6273212707427449663212       0000007900453155297      BUY THE BOOK STORE      0002381016110447
822500000100321270740000000079000000000000001722616679                         021000020000204
5225INTUIT PAYROLL SERVICES    4567898521722616679CCDQUICKBOOKS130204130204   1021000020000205
627121000358564874585        0000007900456789852      BAILEY BREWERY          0002381016110449
822500000100121000350000000079000000000000001722616679                         021000020000205
5225INTUIT PAYROLL SERVICES    4501589631722616679CCDQUICKBOOKS130204130204   1021000020000206
627121201063654000444        0000007900450158963      BREAKERS PLACE          0002381016110451
822500000100121201060000000079000000000000001722616679                         021000020000206
5225INTUIT PAYROLL SERVICES    6489997771722616679CCDQUICKBOOKS130204130204   1021000020000207
6271212010638855544          0000009900648999777      BROWN BUS START IN NOV  0002381016110453
822500000100121201060000000099000000000000001722616679                         021000020000207
5225INTUIT PAYROLL SERVICES    3600240241722616679CCDQUICKBOOKS130204130204   1021000020000208
62709105080712345-12345      0000007900360024024      C360 ACS 24             0002381016110455
822500000100091050800000000079000000000000001722616679                         021000020000208
5225INTUIT PAYROLL SERVICES    3600250251722616679CCDQUICKBOOKS130204130204   1021000020000209
62709105080712345-12345      0000007900360025025      C360 ACS 25             0002381016110457
822500000100091050800000000079000000000000001722616679                         021000020000209
5225INTUIT PAYROLL SERVICES    3600280281722616679CCDQUICKBOOKS130204130204   1021000020000210
62709105080712345-12345      0000007900360028028      C360 ACS 28             0002381016110459
822500000100091050800000000079000000000000001722616679                         021000020000210
5225INTUIT PAYROLL SERVICES    3600290291722616679CCDQUICKBOOKS130204130204   1021000020000211
62709105080712345-12345      0000007900360029029      C360 ACS 29             0002381016110461
822500000100091050800000000079000000000000001722616679                         021000020000211
5225INTUIT PAYROLL SERVICES    3600300301722616679CCDQUICKBOOKS130204130204   1021000020000212
62709105080712345-12345      0000007900360030030      C360 ACS 30 TEST        0002381016110463
822500000100091050800000000079000000000000001722616679                         021000020000212
5225INTUIT PAYROLL SERVICES    3600310311722616679CCDQUICKBOOKS130204130204   1021000020000213
62709105080712345-12345      0000007900360031031      C360 ACS 31             0002381016110465
822500000100091050800000000079000000000000001722616679                         021000020000213
5225INTUIT PAYROLL SERVICES    3600320321722616679CCDQUICKBOOKS130204130204   1021000020000214
62709105080712345-12345      0000007900360032032      C360 ACS 32 LEGAL       0002381016110467
822500000100091050800000000079000000000000001722616679                         021000020000214
5225INTUIT PAYROLL SERVICES    3600330331722616679CCDQUICKBOOKS130204130204   1021000020000215
62709105080712345-12345      0000007900360033033      C360 ACS 33             0002381016110469
822500000100091050800000000079000000000000001722616679                         021000020000215
5225INTUIT PAYROLL SERVICES    7300000031722616679CCDQUICKBOOKS130204130204   1021000020000216
62709105080712345-12345      0000007900730000003      C360 AUTOMATION - COMP  0002381016110471
822500000100091050800000000079000000000000001722616679                         021000020000216
5225INTUIT PAYROLL SERVICES    7300000061722616679CCDQUICKBOOKS130204130204   1021000020000217
62709105080712345-12345      0000007900730000006      C360 AUTOMATION - COMP  0002381016110473
822500000100091050800000000079000000000000001722616679                         021000020000217
5225INTUIT PAYROLL SERVICES    7300000071722616679CCDQUICKBOOKS130204130204   1021000020000218
62709105080712345-12345      0000007900730000007      C360 AUTOMATION - COMP  0002381016110475
822500000100091050800000000079000000000000001722616679                         021000020000218
5225INTUIT PAYROLL SERVICES    3170042011722616679CCDQUICKBOOKS130204130204   1021000020000219
627114923756124567891        0000007900317004201      CAL NO SUI COMPANY FIL  0002381016110477
822500000100114923750000000079000000000000001722616679                         021000020000219
5225INTUIT PAYROLL SERVICES    3172042011722616679CCDQUICKBOOKS130204130204   1021000020000220
627307084240234516789        0000007900317204201      CAL STATE NO WH FOR Q4  0002381016110479
822500000100307084240000000079000000000000001722616679                         021000020000220
5225INTUIT PAYROLL SERVICES    3115042011722616679CCDQUICKBOOKS130204130204   1021000020000221
627114923756123678906        0000007900311504201      CALIFORNIA 15 EE COMPA  0002381016110481
822500000100114923750000000079000000000000001722616679                         021000020000221
5225INTUIT PAYROLL SERVICES    3173042011722616679CCDQUICKBOOKS130204130204   1021000020000222
6271243030651245678954       0000007900317304201      CALIFORNIA BASE COMPAN  0002381016110483
822500000100124303060000000079000000000000001722616679                         021000020000222
5225INTUIT PAYROLL SERVICES    3100042011722616679CCDQUICKBOOKS130204130204   1021000020000223
62730708424033455656767      0000007900310004201      CALIFORNIA NO EMPLOYEE  0002381016110485
822500000100307084240000000079000000000000001722616679                         021000020000223
5225INTUIT PAYROLL SERVICES    3171042011722616679CCDQUICKBOOKS130204130204   1021000020000224
627265473812456123456        0000007900317104201      CALIFORNIA NO SUI AND   0002381016110487
822500000100265473810000000079000000000000001722616679                         021000020000224
5225INTUIT PAYROLL SERVICES    3101042011722616679CCDQUICKBOOKS130204130204   1021000020000225
627114923756123456732        0000007900310104201      CALIFORNIA ONE EE       0002381016110489
822500000100114923750000000079000000000000001722616679                         021000020000225
5225INTUIT PAYROLL SERVICES    3107042011722616679CCDQUICKBOOKS130204130204   1021000020000226
627244183602234156789        0000007900310704201      CALIFORNIA SEVEN EE     0002381016110491
822500000100244183600000000079000000000000001722616679                         021000020000226
5225INTUIT PAYROLL SERVICES    2033899881722616679CCDQUICKBOOKS130204130204   1021000020000227
627121210106123123123        0000007900203389988      CANCELLED ASSISTED COM  0002381016110493
822500000100121210100000000079000000000000001722616679                         021000020000227
5225INTUIT PAYROLL SERVICES    2089899881722616679CCDQUICKBOOKS130204130204   1021000020000228
627121210106123123212333     0000007900208989988      CANCELLED DD WITHOUT 4  0002381016110495
822500000100121210100000000079000000000000001722616679                         021000020000228
5225INTUIT PAYROLL SERVICES    4267194441722616679CCDQUICKBOOKS130204130204   1021000020000229
6273212707428312666525       0000007900426719444      CARMELLA'S CANDY SHOP   0002381016110497
822500000100321270740000000079000000000000001722616679                         021000020000229
5225INTUIT PAYROLL SERVICES    9001592511722616679CCDQUICKBOOKS130204130204   1021000020000230
627321270742999999999        0000007900900159251      CASE360 MIGRATEDDIY TO  0002381016110499
822500000100321270740000000079000000000000001722616679                         021000020000230
5225INTUIT PAYROLL SERVICES    7444715201722616679CCDQUICKBOOKS130204130204   1021000020000231
6273212707426585685468       0000007900744471520      CCASEY - ACTIVATIONS    0002381016110501
822500000100321270740000000079000000000000001722616679                         021000020000231
5225INTUIT PAYROLL SERVICES    5467898761722616679CCDQUICKBOOKS130204130204   1021000020000232
6271212010638686886          0000007900546789876      CCDSUASD                0002381016110503
822500000100121201060000000079000000000000001722616679                         021000020000232
5225INTUIT PAYROLL SERVICES    1227552111722616679CCDQUICKBOOKS130204130204   1021000020000233
6273212707424567893210       0000007900122755211      CERBERUS CLOTHING CLEA  0002381016110505
822500000100321270740000000079000000000000001722616679                         021000020000233
5225INTUIT PAYROLL SERVICES    6263959581722616679CCDQUICKBOOKS130204130204   1021000020000234
6273212707423596587511       0000007900626395958      CFOWLER - ACTIVATIONS   0002381016110507
822500000100321270740000000079000000000000001722616679                         021000020000234
5225INTUIT PAYROLL SERVICES    8672712021722616679CCDQUICKBOOKS130204130204   1021000020000235
6273212707428445661223       0000007900867271202      CHER THE WEALTH FINANC  0002381016110509
822500000100321270740000000079000000000000001722616679                         021000020000235
5225INTUIT PAYROLL SERVICES    3385186261722616679CCDQUICKBOOKS130204130204   1021000020000236
6271212010639765663212       0000007900338518626      CHICKACHICKACHANGE      0002381016110511
822500000100121201060000000079000000000000001722616679                         021000020000236
5225INTUIT PAYROLL SERVICES    3428598761722616679CCDQUICKBOOKS130204130204   1021000020000237
6271212010635640001          0000007900342859876      CHLOES PUPPY PALACE     0002381016110513
822500000100121201060000000079000000000000001722616679                         021000020000237
5225INTUIT PAYROLL SERVICES    3119126931722616679CCDQUICKBOOKS130204130204   1021000020000238
627321270742123456789        0000007900311912693      CHRISTINAK005 ASSISTED  0002381016110515
822500000100321270740000000079000000000000001722616679                         021000020000238
5225INTUIT PAYROLL SERVICES    6257093131722616679CCDQUICKBOOKS130204130204   1021000020000239
6273212707421235465789       0000007900625709313      CJARDINE - ACTIVATIONS  0002381016110517
822500000100321270740000000079000000000000001722616679                         021000020000239
5225INTUIT PAYROLL SERVICES    8856208771722616679CCDQUICKBOOKS130204130204   1021000020000240
6271220002470089466325       0000007900885620877      CLAS FOR PMTS IN BALF   0002381016110519
822500000100122000240000000079000000000000001722616679                         021000020000240
5225INTUIT PAYROLL SERVICES    3464443321722616679CCDQUICKBOOKS130204130204   1021000020000241
627051000017663437647        0000007900346444332      CLEAN UP SUI TEST       0002381016110521
822500000100051000010000000079000000000000001722616679                         021000020000241
5225INTUIT PAYROLL SERVICES    3956281361722616679CCDQUICKBOOKS130204130204   1021000020000242
6273212707429876541230       0000007900395628136      COCOON DAYCARE AND NUR  0002381016110523
822500000100321270740000000079000000000000001722616679                         021000020000242
5225INTUIT PAYROLL SERVICES    3814042011722616679CCDQUICKBOOKS130204130204   1021000020000243
627265473812234123456        0000007900381404201      COLORADO 14 EMPLOYEE A  0002381016110525
822500000100265473810000000079000000000000001722616679                         021000020000243
5225INTUIT PAYROLL SERVICES    3815042011722616679CCDQUICKBOOKS130204130204   1021000020000244
627114923756345678912        0000007900381504201      COLORADO 15 EMPLOYEE C  0002381016110527
822500000100114923750000000079000000000000001722616679                         021000020000244
5225INTUIT PAYROLL SERVICES    3830042011722616679CCDQUICKBOOKS130204130204   1021000020000245
6271149102222345678901       0000007900383004201      COLORADO 30 EMPLOYEE C  0002381016110529
822500000100114910220000000079000000000000001722616679                         021000020000245
5225INTUIT PAYROLL SERVICES    3000042011722616679CCDQUICKBOOKS130204130204   1021000020000246
6271149237561234567891       0000007900300004201      COLORADO NO EMPLOYEE A  0002381016110531
822500000100114923750000000079000000000000001722616679                         021000020000246
5225INTUIT PAYROLL SERVICES    3801042011722616679CCDQUICKBOOKS130204130204   1021000020000247
6272654738121239087654       0000007900380104201      COLORADO ONE EMPLOYEE   0002381016110533
822500000100265473810000000079000000000000001722616679                         021000020000247
5225INTUIT PAYROLL SERVICES    8876554001722616679CCDQUICKBOOKS130204130204   1021000020000248
6271240000127789006543       0000007900887655400      COMPASTPRL1018AM        0002381016110535
822500000100124000010000000079000000000000001722616679                         021000020000248
5225INTUIT PAYROLL SERVICES    4754754751722616679CCDQUICKBOOKS130204130204   1021000020000249
627110000000986785           0000007900475475475      CALA FOODS              0002381016110537
822500000100110000000000000079000000000000001722616679                         021000020000249
5225INTUIT PAYROLL SERVICES    9699538291722616679CCDQUICKBOOKS130204130204   1021000020000250
62709105080712345-62345      0000007900969953829      CASE 360 COMPANY - PEN  0002381016110539
822500000100091050800000000079000000000000001722616679                         021000020000250
5225INTUIT PAYROLL SERVICES    2565616151722616679CCDQUICKBOOKS130204130204   1021000020000251
62709105080712345-62345      0000007900256561615      CASE 360 COMPANY - PEN  0002381016110541
822500000100091050800000000079000000000000001722616679                         021000020000251
5225INTUIT PAYROLL SERVICES    5843648541722616679CCDQUICKBOOKS130204130204   1021000020000252
62709105080712345-62345      0000007900584364854      CASE 360 COMPANY - PEN  0002381016110543
822500000100091050800000000079000000000000001722616679                         021000020000252
5225INTUIT PAYROLL SERVICES    4138558371722616679CCDQUICKBOOKS130204130204   1021000020000253
62709105080712345-62345      0000007900413855837      CASE 360 COMPANY - PEN  0002381016110545
822500000100091050800000000079000000000000001722616679                         021000020000253
5225INTUIT PAYROLL SERVICES    5747182611722616679CCDQUICKBOOKS130204130204   1021000020000254
62709105080712345-62345      0000007900574718261      CASE 360 COMPANY - PEN  0002381016110547
822500000100091050800000000079000000000000001722616679                         021000020000254
5225INTUIT PAYROLL SERVICES    8572921121722616679CCDQUICKBOOKS130204130204   1021000020000255
62709105080712345-62345      0000007900857292112      CASE 360 COMPANY - PEN  0002381016110549
822500000100091050800000000079000000000000001722616679                         021000020000255
5225INTUIT PAYROLL SERVICES    8433229311722616679CCDQUICKBOOKS130204130204   1021000020000256
62709105080712345-62345      0000007900843322931      CASE 360 COMPANY - PEN  0002381016110551
822500000100091050800000000079000000000000001722616679                         021000020000256
5225INTUIT PAYROLL SERVICES    9434648591722616679CCDQUICKBOOKS130204130204   1021000020000257
62709105080712345-62345      0000007900943464859      CASE 360 COMPANY - PEN  0002381016110553
822500000100091050800000000079000000000000001722616679                         021000020000257
5225INTUIT PAYROLL SERVICES    5374194311722616679CCDQUICKBOOKS130204130204   1021000020000258
62709105080712345-62345      0000007900537419431      CASE 360 COMPANY - PEN  0002381016110555
822500000100091050800000000079000000000000001722616679                         021000020000258
5225INTUIT PAYROLL SERVICES    1124128631722616679CCDQUICKBOOKS130204130204   1021000020000259
62709105080712345-62345      0000007900112412863      CASE 360 COMPANY - PEN  0002381016110557
822500000100091050800000000079000000000000001722616679                         021000020000259
5225INTUIT PAYROLL SERVICES    5488495911722616679CCDQUICKBOOKS130204130204   1021000020000260
62709105080712345-62345      0000007900548849591      CASE 360 COMPANY - PEN  0002381016110559
822500000100091050800000000079000000000000001722616679                         021000020000260
5225INTUIT PAYROLL SERVICES    5294541981722616679CCDQUICKBOOKS130204130204   1021000020000261
62709105080712345-62345      0000007900529454198      CASE 360 COMPANY - PEN  0002381016110561
822500000100091050800000000079000000000000001722616679                         021000020000261
5225INTUIT PAYROLL SERVICES    3795312521722616679CCDQUICKBOOKS130204130204   1021000020000262
62709105080712345-62345      0000007900379531252      CASE 360 COMPANY - PEN  0002381016110563
822500000100091050800000000079000000000000001722616679                         021000020000262
5225INTUIT PAYROLL SERVICES    7819819751722616679CCDQUICKBOOKS130204130204   1021000020000263
62709105080712345-62345      0000007900781981975      CASE 360 COMPANY - PEN  0002381016110565
822500000100091050800000000079000000000000001722616679                         021000020000263
5225INTUIT PAYROLL SERVICES    6928943571722616679CCDQUICKBOOKS130204130204   1021000020000264
62709105080712345-62345      0000007900692894357      CASE 360 COMPANY - PEN  0002381016110567
822500000100091050800000000079000000000000001722616679                         021000020000264
5225INTUIT PAYROLL SERVICES    8594652221722616679CCDQUICKBOOKS130204130204   1021000020000265
62709105080712345-62345      0000007900859465222      CASE 360 COMPANY - PEN  0002381016110569
822500000100091050800000000079000000000000001722616679                         021000020000265
5225INTUIT PAYROLL SERVICES    3518264491722616679CCDQUICKBOOKS130204130204   1021000020000266
62709105080712345-62345      0000007900351826449      CASE 360 COMPANY - PEN  0002381016110571
822500000100091050800000000079000000000000001722616679                         021000020000266
5225INTUIT PAYROLL SERVICES    7194242211722616679CCDQUICKBOOKS130204130204   1021000020000267
62709105080712345-62345      0000007900719424221      CASE 360 COMPANY - PEN  0002381016110573
822500000100091050800000000079000000000000001722616679                         021000020000267
5225INTUIT PAYROLL SERVICES    3119462641722616679CCDQUICKBOOKS130204130204   1021000020000268
62709105080712345-62345      0000007900311946264      CASE 360 COMPANY 2      0002381016110575
822500000100091050800000000079000000000000001722616679                         021000020000268
5225INTUIT PAYROLL SERVICES    1616238721722616679CCDQUICKBOOKS130204130204   1021000020000269
62709105080712345-62345      0000007900161623872      CASE 360 COMPANY 2      0002381016110577
822500000100091050800000000079000000000000001722616679                         021000020000269
5225INTUIT PAYROLL SERVICES    2116825681722616679CCDQUICKBOOKS130204130204   1021000020000270
62709105080712345-62345      0000007900211682568      CASE 360 COMPANY 2      0002381016110579
822500000100091050800000000079000000000000001722616679                         021000020000270
5225INTUIT PAYROLL SERVICES    7138842981722616679CCDQUICKBOOKS130204130204   1021000020000271
62709105080712345-62345      0000007900713884298      CASE 360 COMPANY 2      0002381016110581
822500000100091050800000000079000000000000001722616679                         021000020000271
5225INTUIT PAYROLL SERVICES    1878533681722616679CCDQUICKBOOKS130204130204   1021000020000272
62709105080712345-62345      0000007900187853368      CASE 360 COMPANY 2      0002381016110583
822500000100091050800000000079000000000000001722616679                         021000020000272
5225INTUIT PAYROLL SERVICES    3465313911722616679CCDQUICKBOOKS130204130204   1021000020000273
62709105080712345-62345      0000007900346531391      CASE 360 COMPANY 2      0002381016110585
822500000100091050800000000079000000000000001722616679                         021000020000273
5225INTUIT PAYROLL SERVICES    4914487141722616679CCDQUICKBOOKS130204130204   1021000020000274
62709105080712345-62345      0000007900491448714      CASE 360 COMPANY 2      0002381016110587
822500000100091050800000000079000000000000001722616679                         021000020000274
5225INTUIT PAYROLL SERVICES    5822661271722616679CCDQUICKBOOKS130204130204   1021000020000275
62709105080712345-62345      0000007900582266127      CASE 360 COMPANY 2      0002381016110589
822500000100091050800000000079000000000000001722616679                         021000020000275
5225INTUIT PAYROLL SERVICES    3872913821722616679CCDQUICKBOOKS130204130204   1021000020000276
62709105080712345-62345      0000007900387291382      CASE 360 COMPANY 2      0002381016110591
822500000100091050800000000079000000000000001722616679                         021000020000276
5225INTUIT PAYROLL SERVICES    5272181111722616679CCDQUICKBOOKS130204130204   1021000020000277
62709105080712345-62345      0000007900527218111      CASE 360 COMPANY 2      0002381016110593
822500000100091050800000000079000000000000001722616679                         021000020000277
5225INTUIT PAYROLL SERVICES    8481627281722616679CCDQUICKBOOKS130204130204   1021000020000278
62709105080712345-62345      0000007900848162728      CASE 360 COMPANY 2      0002381016110595
822500000100091050800000000079000000000000001722616679                         021000020000278
5225INTUIT PAYROLL SERVICES    4591938921722616679CCDQUICKBOOKS130204130204   1021000020000279
62709105080712345-62345      0000007900459193892      CASE 360 COMPANY 2      0002381016110597
822500000100091050800000000079000000000000001722616679                         021000020000279
5225INTUIT PAYROLL SERVICES    2978359231722616679CCDQUICKBOOKS130204130204   1021000020000280
62709105080712345-62345      0000007900297835923      CASE 360 COMPANY 2      0002381016110599
822500000100091050800000000079000000000000001722616679                         021000020000280
5225INTUIT PAYROLL SERVICES    6399521941722616679CCDQUICKBOOKS130204130204   1021000020000281
62709105080712345-62345      0000007900639952194      CASE 360 COMPANY 2      0002381016110601
822500000100091050800000000079000000000000001722616679                         021000020000281
5225INTUIT PAYROLL SERVICES    3946513561722616679CCDQUICKBOOKS130204130204   1021000020000282
62709105080712345-62345      0000007900394651356      CASE 360 COMPANY 2      0002381016110603
822500000100091050800000000079000000000000001722616679                         021000020000282
5225INTUIT PAYROLL SERVICES    5892593781722616679CCDQUICKBOOKS130204130204   1021000020000283
62709105080712345-62345      0000007900589259378      CASE 360 COMPANY 2      0002381016110605
822500000100091050800000000079000000000000001722616679                         021000020000283
5225INTUIT PAYROLL SERVICES    1209282831722616679CCDQUICKBOOKS130204130204   1021000020000284
62712312312323424987987      0000005865120928283      CHANGEOFFER QA1         0002381016110607
822500000100123123120000000058650000000000001722616679                         021000020000284
5225INTUIT PAYROLL SERVICES    2012091321722616679CCDQUICKBOOKS130204130204   1021000020000285
6271110000251234567890       0000007900201209132      CHARLIE201209132        0002381016110609
822500000100111000020000000079000000000000001722616679                         021000020000285
5225INTUIT PAYROLL SERVICES    2012091451722616679CCDQUICKBOOKS130204130204   1021000020000286
6271110000251234567890       0000007900201209145      CHARLIE201209145        0002381016110611
822500000100111000020000000079000000000000001722616679                         021000020000286
5225INTUIT PAYROLL SERVICES    2012091711722616679CCDQUICKBOOKS130204130204   1021000020000287
6271110000251234567890       0000007900201209171      CHARLIE201209171        0002381016110613
822500000100111000020000000079000000000000001722616679                         021000020000287
5225INTUIT PAYROLL SERVICES    2012091721722616679CCDQUICKBOOKS130204130204   1021000020000288
6271110000251234567890       0000007900201209172      CHARLIE201209172        0002381016110615
822500000100111000020000000079000000000000001722616679                         021000020000288
5225INTUIT PAYROLL SERVICES    2012091731722616679CCDQUICKBOOKS130204130204   1021000020000289
6271110000251234567890       0000007900201209173      CHARLIE201209173        0002381016110617
822500000100111000020000000079000000000000001722616679                         021000020000289
5225INTUIT PAYROLL SERVICES    2012091741722616679CCDQUICKBOOKS130204130204   1021000020000290
6271110000251234567890       0000007900201209174      CHARLIE201209174        0002381016110619
822500000100111000020000000079000000000000001722616679                         021000020000290
5225INTUIT PAYROLL SERVICES    2012091761722616679CCDQUICKBOOKS130204130204   1021000020000291
6271110000251234567890       0000007900201209176      CHARLIE201209176        0002381016110621
822500000100111000020000000079000000000000001722616679                         021000020000291
5225INTUIT PAYROLL SERVICES    2012091771722616679CCDQUICKBOOKS130204130204   1021000020000292
6271110000251234567890       0000007900201209177      CHARLIE201209177        0002381016110623
822500000100111000020000000079000000000000001722616679                         021000020000292
5225INTUIT PAYROLL SERVICES    2012091981722616679CCDQUICKBOOKS130204130204   1021000020000293
6271110000251234567890       0000007900201209198      CHARLIE20120918         0002381016110625
822500000100111000020000000079000000000000001722616679                         021000020000293
5225INTUIT PAYROLL SERVICES    2012091911722616679CCDQUICKBOOKS130204130204   1021000020000294
6271110000251234567890       0000007900201209191      CHARLIE201209191        0002381016110627
822500000100111000020000000079000000000000001722616679                         021000020000294
5225INTUIT PAYROLL SERVICES    2012091921722616679CCDQUICKBOOKS130204130204   1021000020000295
6271110000251234567890       0000007900201209192      CHARLIE201209192        0002381016110629
822500000100111000020000000079000000000000001722616679                         021000020000295
5225INTUIT PAYROLL SERVICES    2012091931722616679CCDQUICKBOOKS130204130204   1021000020000296
6271110000251234567890       0000007900201209193      CHARLIE201209193        0002381016110631
822500000100111000020000000079000000000000001722616679                         021000020000296
5225INTUIT PAYROLL SERVICES    2012091941722616679CCDQUICKBOOKS130204130204   1021000020000297
6271110000251234567890       0000007900201209194      CHARLIE201209194        0002381016110633
822500000100111000020000000079000000000000001722616679                         021000020000297
5225INTUIT PAYROLL SERVICES    2012091951722616679CCDQUICKBOOKS130204130204   1021000020000298
6271110000251234567890       0000007900201209195      CHARLIE201209195        0002381016110635
822500000100111000020000000079000000000000001722616679                         021000020000298
5225INTUIT PAYROLL SERVICES    2012091961722616679CCDQUICKBOOKS130204130204   1021000020000299
6271110000251234567890       0000007900201209196      CHARLIE201209196        0002381016110637
822500000100111000020000000079000000000000001722616679                         021000020000299
5225INTUIT PAYROLL SERVICES    2012100111722616679CCDQUICKBOOKS130204130204   1021000020000300
6271110000251234567890       0000007900201210011      CHARLIE201210011        0002381016110639
822500000100111000020000000079000000000000001722616679                         021000020000300
5225INTUIT PAYROLL SERVICES    2012100121722616679CCDQUICKBOOKS130204130204   1021000020000301
6271110000251234567890       0000007900201210012      CHARLIE201210012        0002381016110641
822500000100111000020000000079000000000000001722616679                         021000020000301
5225INTUIT PAYROLL SERVICES    2012100131722616679CCDQUICKBOOKS130204130204   1021000020000302
6271110000251234567890       0000007900201210013      CHARLIE201210013        0002381016110643
822500000100111000020000000079000000000000001722616679                         021000020000302
5225INTUIT PAYROLL SERVICES    2012100211722616679CCDQUICKBOOKS130204130204   1021000020000303
6271110000251234567890       0000007900201210021      CHARLIE201210021        0002381016110645
822500000100111000020000000079000000000000001722616679                         021000020000303
5225INTUIT PAYROLL SERVICES    2012100221722616679CCDQUICKBOOKS130204130204   1021000020000304
6271110000251234567890       0000007900201210022      CHARLIE201210022        0002381016110647
822500000100111000020000000079000000000000001722616679                         021000020000304
5225INTUIT PAYROLL SERVICES    2012100231722616679CCDQUICKBOOKS130204130204   1021000020000305
6271110000251234567890       0000007900201210023      CHARLIE201210023        0002381016110649
822500000100111000020000000079000000000000001722616679                         021000020000305
5225INTUIT PAYROLL SERVICES    2012100241722616679CCDQUICKBOOKS130204130204   1021000020000306
6271110000251234567890       0000007900201210024      CHARLIE201210024        0002381016110651
822500000100111000020000000079000000000000001722616679                         021000020000306
5225INTUIT PAYROLL SERVICES    2012100251722616679CCDQUICKBOOKS130204130204   1021000020000307
6271110000251234567890       0000007900201210025      CHARLIE201210025        0002381016110653
822500000100111000020000000079000000000000001722616679                         021000020000307
5225INTUIT PAYROLL SERVICES    2012100261722616679CCDQUICKBOOKS130204130204   1021000020000308
6271110000251234567890       0000007900201210026      CHARLIE201210026        0002381016110655
822500000100111000020000000079000000000000001722616679                         021000020000308
5225INTUIT PAYROLL SERVICES    2012100271722616679CCDQUICKBOOKS130204130204   1021000020000309
6271110000251234567890       0000007900201210027      CHARLIE201210027        0002381016110657
822500000100111000020000000079000000000000001722616679                         021000020000309
5225INTUIT PAYROLL SERVICES    2012100281722616679CCDQUICKBOOKS130204130204   1021000020000310
6271110000251234567890       0000007900201210028      CHARLIE201210028        0002381016110659
822500000100111000020000000079000000000000001722616679                         021000020000310
5225INTUIT PAYROLL SERVICES    2012100291722616679CCDQUICKBOOKS130204130204   1021000020000311
6271110000251234567890       0000007900201210029      CHARLIE201210029        0002381016110661
822500000100111000020000000079000000000000001722616679                         021000020000311
5225INTUIT PAYROLL SERVICES    2012100321722616679CCDQUICKBOOKS130204130204   1021000020000312
6271110000251234567890       0000007900201210032      CHARLIE201210032        0002381016110663
822500000100111000020000000079000000000000001722616679                         021000020000312
5225INTUIT PAYROLL SERVICES    2012100341722616679CCDQUICKBOOKS130204130204   1021000020000313
6271110000251234567890       0000007900201210034      CHARLIE201210034        0002381016110665
822500000100111000020000000079000000000000001722616679                         021000020000313
5225INTUIT PAYROLL SERVICES    2012100421722616679CCDQUICKBOOKS130204130204   1021000020000314
6271110000251234567890       0000007900201210042      CHARLIE201210042        0002381016110667
822500000100111000020000000079000000000000001722616679                         021000020000314
5225INTUIT PAYROLL SERVICES    2012100441722616679CCDQUICKBOOKS130204130204   1021000020000315
6271110000251234567890       0000007900201210044      CHARLIE201210044        0002381016110669
822500000100111000020000000079000000000000001722616679                         021000020000315
5225INTUIT PAYROLL SERVICES    2012100451722616679CCDQUICKBOOKS130204130204   1021000020000316
6271110000251234567890       0000007900201210045      CHARLIE201210045        0002381016110671
822500000100111000020000000079000000000000001722616679                         021000020000316
5225INTUIT PAYROLL SERVICES    2012100461722616679CCDQUICKBOOKS130204130204   1021000020000317
6271110000251234567890       0000007900201210046      CHARLIE201210046        0002381016110673
822500000100111000020000000079000000000000001722616679                         021000020000317
5225INTUIT PAYROLL SERVICES    2012100511722616679CCDQUICKBOOKS130204130204   1021000020000318
6271110000251234567890       0000007900201210051      CHARLIE201210051        0002381016110675
822500000100111000020000000079000000000000001722616679                         021000020000318
5225INTUIT PAYROLL SERVICES    2012100521722616679CCDQUICKBOOKS130204130204   1021000020000319
6271110000251234567890       0000007900201210052      CHARLIE201210052        0002381016110677
822500000100111000020000000079000000000000001722616679                         021000020000319
5225INTUIT PAYROLL SERVICES    2012100811722616679CCDQUICKBOOKS130204130204   1021000020000320
6271110000251234567890       0000007900201210081      CHARLIE201210081        0002381016110679
822500000100111000020000000079000000000000001722616679                         021000020000320
5225INTUIT PAYROLL SERVICES    2012101011722616679CCDQUICKBOOKS130204130204   1021000020000321
6271110000251234567890       0000007900201210101      CHARLIE201210101        0002381016110681
822500000100111000020000000079000000000000001722616679                         021000020000321
5225INTUIT PAYROLL SERVICES    2012101021722616679CCDQUICKBOOKS130204130204   1021000020000322
6271110000251234567890       0000007900201210102      CHARLIE201210102        0002381016110683
822500000100111000020000000079000000000000001722616679                         021000020000322
5225INTUIT PAYROLL SERVICES    2012101111722616679CCDQUICKBOOKS130204130204   1021000020000323
6271110000251234567890       0000007900201210111      CHARLIE201210111        0002381016110685
822500000100111000020000000079000000000000001722616679                         021000020000323
5225INTUIT PAYROLL SERVICES    2012101121722616679CCDQUICKBOOKS130204130204   1021000020000324
6271110000251234567890       0000007900201210112      CHARLIE201210112        0002381016110687
822500000100111000020000000079000000000000001722616679                         021000020000324
5225INTUIT PAYROLL SERVICES    2012101131722616679CCDQUICKBOOKS130204130204   1021000020000325
6271110000251234567890       0000007900201210113      CHARLIE201210113        0002381016110689
822500000100111000020000000079000000000000001722616679                         021000020000325
5225INTUIT PAYROLL SERVICES    2012101811722616679CCDQUICKBOOKS130204130204   1021000020000326
6271110000251234567890       0000007900201210181      CHARLIE201210181        0002381016110691
822500000100111000020000000079000000000000001722616679                         021000020000326
5225INTUIT PAYROLL SERVICES    2012113111722616679CCDQUICKBOOKS130204130204   1021000020000327
6271110000251234567890       0000009900201211311      CHARLIE201211311        0002381016110693
822500000100111000020000000099000000000000001722616679                         021000020000327
5225INTUIT PAYROLL SERVICES    2012113121722616679CCDQUICKBOOKS130204130204   1021000020000328
6271110000251234567890       0000009900201211312      CHARLIE201211312        0002381016110695
822500000100111000020000000099000000000000001722616679                         021000020000328
5225INTUIT PAYROLL SERVICES    2012113131722616679CCDQUICKBOOKS130204130204   1021000020000329
6271110000251234567890       0000009900201211313      CHARLIE201211313        0002381016110697
822500000100111000020000000099000000000000001722616679                         021000020000329
5225INTUIT PAYROLL SERVICES    6630000611722616679CCDQUICKBOOKS130204130204   1021000020000330
63712312312312345            0000007900663000061      COMMISSION TEST 1 ASSI  0002381016110699
822500000100123123120000000079000000000000001722616679                         021000020000330
5225INTUIT PAYROLL SERVICES    2012101691722616679CCDQUICKBOOKS130204130204   1021000020000331
627124000012987654321        0000008421201210169      COMP_ASSISTEDSYMP_1016  0002381016110701
822500000100124000010000000084210000000000001722616679                         021000020000331
5225INTUIT PAYROLL SERVICES    2012121711722616679CCDQUICKBOOKS130204130204   1021000020000332
627124000012123123123        0000007900201212171      COMP_ASSISTED_CRASH_12  0002381016110703
822500000100124000010000000079000000000000001722616679                         021000020000332
5225INTUIT PAYROLL SERVICES    2012110911722616679CCDQUICKBOOKS130204130204   1021000020000333
627124000012123123123        0000007900201211091      COMP_ASSISTED_IPD       0002381016110705
822500000100124000010000000079000000000000001722616679                         021000020000333
5225INTUIT PAYROLL SERVICES    2013012511722616679CCDQUICKBOOKS130204130204   1021000020000334
627124000012123412341        0000075079201301251      COMP_ASSISTED_STORY29   0002381016110707
822500000100124000010000000750790000000000001722616679                         021000020000334
5225INTUIT PAYROLL SERVICES    2013011161722616679CCDQUICKBOOKS130204130204   1021000020000335
627124000012123456123        0000017731201301116      COMP_NIRVANAR5_ACTIVEE  0002381016110710
822500000100124000010000000177310000000000001722616679                         021000020000335
5225INTUIT PAYROLL SERVICES    2012100411722616679CCDQUICKBOOKS130204130204   1021000020000336
627124000012123456789        0000007900201210041      COMP_NONSYMPASSISTED_1  0002381016110713
822500000100124000010000000079000000000000001722616679                         021000020000336
5225INTUIT PAYROLL SERVICES    2012082291722616679CCDQUICKBOOKS130204130204   1021000020000337
627124000012345678912        0000008651201208229      COMPANY_0822_ASSISTED   0002381016110715
822500000100124000010000000086510000000000001722616679                         021000020000337
5225INTUIT PAYROLL SERVICES    2012082791722616679CCDQUICKBOOKS130204130204   1021000020000338
627124000012123451234        0000007900201208279      COMPANY_0827_ASSISTED   0002381016110717
822500000100124000010000000079000000000000001722616679                         021000020000338
5225INTUIT PAYROLL SERVICES    2012082821722616679CCDQUICKBOOKS130204130204   1021000020000339
627124000012123456789        0000007900201208282      COMPANY_0828_ASSISTED_  0002381016110719
822500000100124000010000000079000000000000001722616679                         021000020000339
5225INTUIT PAYROLL SERVICES    2012090791722616679CCDQUICKBOOKS130204130204   1021000020000340
627124000012123412341        0000007900201209079      COMPANY_0907_ASSISTED_  0002381016110721
822500000100124000010000000079000000000000001722616679                         021000020000340
5225INTUIT PAYROLL SERVICES    2012091891722616679CCDQUICKBOOKS130204130204   1021000020000341
627124000012123412341        0000007900201209189      COMPANY_0918_QBPP01762  0002381016110723
822500000100124000010000000079000000000000001722616679                         021000020000341
5225INTUIT PAYROLL SERVICES    2012112241722616679CCDQUICKBOOKS130204130204   1021000020000342
627124000012432143211        0000007900201211224      COMPANY_ASSISTEDNIRVAN  0002381016110725
822500000100124000010000000079000000000000001722616679                         021000020000342
5225INTUIT PAYROLL SERVICES    2012082191722616679CCDQUICKBOOKS130204130204   1021000020000343
627124000012123455678        0000008433201208219      COMPANY_ASSISTED_0821   0002381016110727
822500000100124000010000000084330000000000001722616679                         021000020000343
5225INTUIT PAYROLL SERVICES    2012082991722616679CCDQUICKBOOKS130204130204   1021000020000344
627124000012123412312        0000007900201208299      COMPANY_ASSISTED_0829   0002381016110729
822500000100124000010000000079000000000000001722616679                         021000020000344
5225INTUIT PAYROLL SERVICES    2012090491722616679CCDQUICKBOOKS130204130204   1021000020000345
627124000012123412341        0000007900201209049      COMPANY_ASSISTED_0904   0002381016110731
822500000100124000010000000079000000000000001722616679                         021000020000345
5225INTUIT PAYROLL SERVICES    2012090481722616679CCDQUICKBOOKS130204130204   1021000020000346
627124000012123412341        0000007900201209048      COMPANY_ASSISTED_0904_  0002381016110733
822500000100124000010000000079000000000000001722616679                         021000020000346
5225INTUIT PAYROLL SERVICES    2012090691722616679CCDQUICKBOOKS130204130204   1021000020000347
627124000012123412341        0000007900201209069      COMPANY_ASSISTED_0906   0002381016110735
822500000100124000010000000079000000000000001722616679                         021000020000347
5225INTUIT PAYROLL SERVICES    2012090681722616679CCDQUICKBOOKS130204130204   1021000020000348
627124000012123412341        0000007900201209068      COMPANY_ASSISTED_0906_  0002381016110737
822500000100124000010000000079000000000000001722616679                         021000020000348
5225INTUIT PAYROLL SERVICES    2012091291722616679CCDQUICKBOOKS130204130204   1021000020000349
627124000012123412341        0000007900201209129      COMPANY_ASSISTED_0912   0002381016110739
822500000100124000010000000079000000000000001722616679                         021000020000349
5225INTUIT PAYROLL SERVICES    2012101591722616679CCDQUICKBOOKS130204130204   1021000020000350
627124000012543214321        0000008421201210159      COMPANY_ASSISTED_1015   0002381016110741
822500000100124000010000000084210000000000001722616679                         021000020000350
5225INTUIT PAYROLL SERVICES    2012090661722616679CCDQUICKBOOKS130204130204   1021000020000351
